{
  "address": "0xfE9a7603641e5Ac1cc155C62bAA7242dABf93B5a",
  "abi": [
    {
      "inputs": [],
      "stateMutability": "nonpayable",
      "type": "constructor"
    },
    {
      "inputs": [
        {
          "internalType": "address",
          "name": "target",
          "type": "address"
        }
      ],
      "name": "AddressEmptyCode",
      "type": "error"
    },
    {
      "inputs": [],
      "name": "DepositNotAcceptingIntents",
      "type": "error"
    },
    {
      "inputs": [],
      "name": "DepositNotFound",
      "type": "error"
    },
    {
      "inputs": [
        {
          "internalType": "address",
          "name": "implementation",
          "type": "address"
        }
      ],
      "name": "ERC1967InvalidImplementation",
      "type": "error"
    },
    {
      "inputs": [],
      "name": "ERC1967NonPayable",
      "type": "error"
    },
    {
      "inputs": [],
      "name": "EnforcedPause",
      "type": "error"
    },
    {
      "inputs": [],
      "name": "ExpectedPause",
      "type": "error"
    },
    {
      "inputs": [],
      "name": "FailedCall",
      "type": "error"
    },
    {
      "inputs": [],
      "name": "IntentAlreadyExists",
      "type": "error"
    },
    {
      "inputs": [],
      "name": "IntentNotFound",
      "type": "error"
    },
    {
      "inputs": [],
      "name": "InvalidAccountNumber",
      "type": "error"
    },
    {
      "inputs": [],
      "name": "InvalidAddress",
      "type": "error"
    },
    {
      "inputs": [],
      "name": "InvalidAmount",
      "type": "error"
    },
    {
      "inputs": [],
      "name": "InvalidInitialization",
      "type": "error"
    },
    {
      "inputs": [],
      "name": "InvalidIntentAmountRange",
      "type": "error"
    },
    {
      "inputs": [],
      "name": "InvalidRecipient",
      "type": "error"
    },
    {
      "inputs": [],
      "name": "NotInitializing",
      "type": "error"
    },
    {
      "inputs": [],
      "name": "OnlyDepositor",
      "type": "error"
    },
    {
      "inputs": [],
      "name": "OnlyIntentOwner",
      "type": "error"
    },
    {
      "inputs": [
        {
          "internalType": "address",
          "name": "owner",
          "type": "address"
        }
      ],
      "name": "OwnableInvalidOwner",
      "type": "error"
    },
    {
      "inputs": [
        {
          "internalType": "address",
          "name": "account",
          "type": "address"
        }
      ],
      "name": "OwnableUnauthorizedAccount",
      "type": "error"
    },
    {
      "inputs": [],
      "name": "RedeemAlreadyExists",
      "type": "error"
    },
    {
      "inputs": [],
      "name": "RedeemRequestNotFound",
      "type": "error"
    },
    {
      "inputs": [
        {
          "internalType": "address",
          "name": "token",
          "type": "address"
        }
      ],
      "name": "SafeERC20FailedOperation",
      "type": "error"
    },
    {
      "inputs": [],
      "name": "UUPSUnauthorizedCallContext",
      "type": "error"
    },
    {
      "inputs": [
        {
          "internalType": "bytes32",
          "name": "slot",
          "type": "bytes32"
        }
      ],
      "name": "UUPSUnsupportedProxiableUUID",
      "type": "error"
    },
    {
      "anonymous": false,
      "inputs": [
        {
          "indexed": false,
          "internalType": "uint256",
          "name": "depositId",
          "type": "uint256"
        },
        {
          "indexed": false,
          "internalType": "address",
          "name": "depositor",
          "type": "address"
        }
      ],
      "name": "DepositClosed",
      "type": "event"
    },
    {
      "anonymous": false,
      "inputs": [
        {
          "indexed": true,
          "internalType": "uint256",
          "name": "depositId",
          "type": "uint256"
        },
        {
          "indexed": true,
          "internalType": "address",
          "name": "verifier",
          "type": "address"
        },
        {
          "indexed": false,
          "internalType": "bytes32",
          "name": "fiatCurrency",
          "type": "bytes32"
        },
        {
          "indexed": false,
          "internalType": "uint256",
          "name": "newConversionRate",
          "type": "uint256"
        }
      ],
      "name": "DepositConversionRateUpdated",
      "type": "event"
    },
    {
      "anonymous": false,
      "inputs": [
        {
          "indexed": false,
          "internalType": "uint256",
          "name": "depositId",
          "type": "uint256"
        },
        {
          "indexed": false,
          "internalType": "address",
          "name": "depositor",
          "type": "address"
        },
        {
          "indexed": false,
          "internalType": "contract IERC20",
          "name": "token",
          "type": "address"
        },
        {
          "indexed": false,
          "internalType": "uint256",
          "name": "amount",
          "type": "uint256"
        },
        {
          "components": [
            {
              "internalType": "uint256",
              "name": "min",
              "type": "uint256"
            },
            {
              "internalType": "uint256",
              "name": "max",
              "type": "uint256"
            }
          ],
          "indexed": false,
          "internalType": "struct IEscrow.Range",
          "name": "intentAmountRange",
          "type": "tuple"
        }
      ],
      "name": "DepositCreated",
      "type": "event"
    },
    {
      "anonymous": false,
      "inputs": [
        {
          "indexed": true,
          "internalType": "uint256",
          "name": "depositId",
          "type": "uint256"
        },
        {
          "indexed": true,
          "internalType": "address",
          "name": "verifier",
          "type": "address"
        },
        {
          "indexed": true,
          "internalType": "bytes32",
          "name": "currency",
          "type": "bytes32"
        },
        {
          "indexed": false,
          "internalType": "uint256",
          "name": "conversionRate",
          "type": "uint256"
        }
      ],
      "name": "DepositCurrencyAdded",
      "type": "event"
    },
    {
      "anonymous": false,
      "inputs": [
        {
          "indexed": true,
          "internalType": "uint256",
          "name": "depositId",
          "type": "uint256"
        },
        {
          "indexed": false,
          "internalType": "address",
          "name": "oldDepositor",
          "type": "address"
        },
        {
          "indexed": false,
          "internalType": "address",
          "name": "newDepositor",
          "type": "address"
        }
      ],
      "name": "DepositDepositorChanged",
      "type": "event"
    },
    {
      "anonymous": false,
      "inputs": [
        {
          "indexed": true,
          "internalType": "uint256",
          "name": "depositId",
          "type": "uint256"
        },
        {
          "indexed": true,
          "internalType": "address",
          "name": "depositor",
          "type": "address"
        },
        {
          "indexed": false,
          "internalType": "uint256",
          "name": "additionalAmount",
          "type": "uint256"
        },
        {
          "indexed": false,
          "internalType": "uint256",
          "name": "newTotalAmount",
          "type": "uint256"
        }
      ],
      "name": "DepositIncreased",
      "type": "event"
    },
    {
      "anonymous": false,
      "inputs": [
        {
          "indexed": true,
          "internalType": "uint256",
          "name": "depositId",
          "type": "uint256"
        },
        {
          "components": [
            {
              "internalType": "uint256",
              "name": "min",
              "type": "uint256"
            },
            {
              "internalType": "uint256",
              "name": "max",
              "type": "uint256"
            }
          ],
          "indexed": false,
          "internalType": "struct IEscrow.Range",
          "name": "oldRange",
          "type": "tuple"
        },
        {
          "components": [
            {
              "internalType": "uint256",
              "name": "min",
              "type": "uint256"
            },
            {
              "internalType": "uint256",
              "name": "max",
              "type": "uint256"
            }
          ],
          "indexed": false,
          "internalType": "struct IEscrow.Range",
          "name": "newRange",
          "type": "tuple"
        }
      ],
      "name": "DepositIntentAmountRangeUpdated",
      "type": "event"
    },
    {
      "anonymous": false,
      "inputs": [
        {
          "indexed": true,
          "internalType": "uint256",
          "name": "depositId",
          "type": "uint256"
        },
        {
          "indexed": true,
          "internalType": "address",
          "name": "verifier",
          "type": "address"
        },
        {
          "indexed": false,
          "internalType": "bytes32",
          "name": "payeeDetailsHash",
          "type": "bytes32"
        }
      ],
      "name": "DepositVerifierAdded",
      "type": "event"
    },
    {
      "anonymous": false,
      "inputs": [
        {
          "indexed": true,
          "internalType": "uint256",
          "name": "depositId",
          "type": "uint256"
        },
        {
          "indexed": true,
          "internalType": "address",
          "name": "depositor",
          "type": "address"
        },
        {
          "indexed": false,
          "internalType": "uint256",
          "name": "amount",
          "type": "uint256"
        }
      ],
      "name": "DepositWithdrawn",
      "type": "event"
    },
    {
      "anonymous": false,
      "inputs": [
        {
          "indexed": false,
          "internalType": "uint64",
          "name": "version",
          "type": "uint64"
        }
      ],
      "name": "Initialized",
      "type": "event"
    },
    {
      "anonymous": false,
      "inputs": [
        {
          "indexed": false,
          "internalType": "uint256",
          "name": "intentId",
          "type": "uint256"
        },
        {
          "indexed": false,
          "internalType": "address",
          "name": "owner",
          "type": "address"
        }
      ],
      "name": "IntentCancelled",
      "type": "event"
    },
    {
      "anonymous": false,
      "inputs": [
        {
          "indexed": false,
          "internalType": "uint256",
          "name": "intentExpirationPeriod",
          "type": "uint256"
        }
      ],
      "name": "IntentExpirationPeriodSet",
      "type": "event"
    },
    {
      "anonymous": false,
      "inputs": [
        {
          "indexed": true,
          "internalType": "uint256",
          "name": "intentId",
          "type": "uint256"
        },
        {
          "indexed": true,
          "internalType": "uint256",
          "name": "depositId",
          "type": "uint256"
        },
        {
          "indexed": true,
          "internalType": "address",
          "name": "verifier",
          "type": "address"
        },
        {
          "indexed": false,
          "internalType": "address",
          "name": "owner",
          "type": "address"
        },
        {
          "indexed": false,
          "internalType": "address",
          "name": "to",
          "type": "address"
        },
        {
          "indexed": false,
          "internalType": "uint256",
          "name": "amount",
          "type": "uint256"
        }
      ],
      "name": "IntentFulfilled",
      "type": "event"
    },
    {
      "anonymous": false,
      "inputs": [
        {
          "indexed": true,
          "internalType": "uint256",
          "name": "intentId",
          "type": "uint256"
        },
        {
          "indexed": true,
          "internalType": "uint256",
          "name": "depositId",
          "type": "uint256"
        },
        {
          "indexed": false,
          "internalType": "address",
          "name": "owner",
          "type": "address"
        },
        {
          "indexed": false,
          "internalType": "address",
          "name": "to",
          "type": "address"
        },
        {
          "indexed": false,
          "internalType": "uint256",
          "name": "amount",
          "type": "uint256"
        }
      ],
      "name": "IntentReleased",
      "type": "event"
    },
    {
      "anonymous": false,
      "inputs": [
        {
          "indexed": false,
          "internalType": "address",
          "name": "owner",
          "type": "address"
        },
        {
          "indexed": false,
          "internalType": "address",
          "name": "to",
          "type": "address"
        },
        {
          "indexed": false,
          "internalType": "address",
          "name": "verifier",
          "type": "address"
        },
        {
          "indexed": false,
          "internalType": "uint256",
          "name": "amount",
          "type": "uint256"
        },
        {
          "indexed": false,
          "internalType": "uint256",
          "name": "intentId",
          "type": "uint256"
        },
        {
          "indexed": false,
          "internalType": "uint256",
          "name": "conversionRate",
          "type": "uint256"
        }
      ],
      "name": "IntentSignaled",
      "type": "event"
    },
    {
      "anonymous": false,
      "inputs": [
        {
          "indexed": false,
          "internalType": "uint256",
          "name": "oldMax",
          "type": "uint256"
        },
        {
          "indexed": false,
          "internalType": "uint256",
          "name": "newMax",
          "type": "uint256"
        }
      ],
      "name": "MaxIntentsPerDepositUpdated",
      "type": "event"
    },
    {
      "anonymous": false,
      "inputs": [
        {
          "indexed": true,
          "internalType": "address",
          "name": "previousOwner",
          "type": "address"
        },
        {
          "indexed": true,
          "internalType": "address",
          "name": "newOwner",
          "type": "address"
        }
      ],
      "name": "OwnershipTransferred",
      "type": "event"
    },
    {
      "anonymous": false,
      "inputs": [
        {
          "indexed": false,
          "internalType": "address",
          "name": "account",
          "type": "address"
        }
      ],
      "name": "Paused",
      "type": "event"
    },
    {
      "anonymous": false,
      "inputs": [
        {
          "indexed": false,
          "internalType": "address",
          "name": "verifier",
          "type": "address"
        }
      ],
      "name": "PaymentVerifierAdded",
      "type": "event"
    },
    {
      "anonymous": false,
      "inputs": [
        {
          "indexed": false,
          "internalType": "address",
          "name": "verifier",
          "type": "address"
        }
      ],
      "name": "PaymentVerifierRemoved",
      "type": "event"
    },
    {
      "anonymous": false,
      "inputs": [
        {
          "indexed": false,
          "internalType": "uint256",
          "name": "redeemId",
          "type": "uint256"
        }
      ],
      "name": "RedeemRequestCancelled",
      "type": "event"
    },
    {
      "anonymous": false,
      "inputs": [
        {
          "indexed": false,
          "internalType": "uint256",
          "name": "redeemId",
          "type": "uint256"
        }
      ],
      "name": "RedeemRequestFulfilled",
      "type": "event"
    },
    {
      "anonymous": false,
      "inputs": [
        {
          "indexed": true,
          "internalType": "uint256",
          "name": "redeemId",
          "type": "uint256"
        },
        {
          "indexed": true,
          "internalType": "address",
          "name": "owner",
          "type": "address"
        },
        {
          "indexed": false,
          "internalType": "uint256",
          "name": "amount",
          "type": "uint256"
        },
        {
          "indexed": false,
          "internalType": "string",
          "name": "accountNumber",
          "type": "string"
        }
      ],
      "name": "RedeemRequestSignaled",
      "type": "event"
    },
    {
      "anonymous": false,
      "inputs": [
        {
          "indexed": false,
          "internalType": "address",
          "name": "account",
          "type": "address"
        }
      ],
      "name": "Unpaused",
      "type": "event"
    },
    {
      "anonymous": false,
      "inputs": [
        {
          "indexed": true,
          "internalType": "address",
          "name": "implementation",
          "type": "address"
        }
      ],
      "name": "Upgraded",
      "type": "event"
    },
    {
      "inputs": [],
      "name": "UPGRADE_INTERFACE_VERSION",
      "outputs": [
        {
          "internalType": "string",
          "name": "",
          "type": "string"
        }
      ],
      "stateMutability": "view",
      "type": "function"
    },
    {
      "inputs": [
        {
          "internalType": "address",
          "name": "account",
          "type": "address"
        },
        {
          "internalType": "uint256",
          "name": "index",
          "type": "uint256"
        }
      ],
      "name": "accountDeposits",
      "outputs": [
        {
          "internalType": "uint256",
          "name": "",
          "type": "uint256"
        }
      ],
      "stateMutability": "view",
      "type": "function"
    },
    {
      "inputs": [
        {
          "internalType": "address",
          "name": "account",
          "type": "address"
        }
      ],
      "name": "accountIntent",
      "outputs": [
        {
          "internalType": "uint256",
          "name": "",
          "type": "uint256"
        }
      ],
      "stateMutability": "view",
      "type": "function"
    },
    {
      "inputs": [
        {
          "internalType": "address",
          "name": "_verifier",
          "type": "address"
        }
      ],
      "name": "addWhitelistedPaymentVerifier",
      "outputs": [],
      "stateMutability": "nonpayable",
      "type": "function"
    },
    {
      "inputs": [
        {
          "internalType": "uint256",
          "name": "_intentId",
          "type": "uint256"
        }
      ],
      "name": "cancelIntent",
      "outputs": [],
      "stateMutability": "nonpayable",
      "type": "function"
    },
    {
      "inputs": [],
      "name": "chainName",
      "outputs": [
        {
          "internalType": "string",
          "name": "",
          "type": "string"
        }
      ],
      "stateMutability": "view",
      "type": "function"
    },
    {
      "inputs": [
        {
          "internalType": "uint256",
          "name": "_depositId",
          "type": "uint256"
        },
        {
          "internalType": "address",
          "name": "_newDepositor",
          "type": "address"
        }
      ],
      "name": "changeDepositor",
      "outputs": [],
      "stateMutability": "nonpayable",
      "type": "function"
    },
    {
      "inputs": [
        {
          "internalType": "contract IERC20",
          "name": "_token",
          "type": "address"
        },
        {
          "internalType": "uint256",
          "name": "_amount",
          "type": "uint256"
        },
        {
          "components": [
            {
              "internalType": "uint256",
              "name": "min",
              "type": "uint256"
            },
            {
              "internalType": "uint256",
              "name": "max",
              "type": "uint256"
            }
          ],
          "internalType": "struct IEscrow.Range",
          "name": "_intentAmountRange",
          "type": "tuple"
        },
        {
          "internalType": "address[]",
          "name": "_verifiers",
          "type": "address[]"
        },
        {
          "components": [
            {
              "internalType": "string",
              "name": "payeeDetails",
              "type": "string"
            },
            {
              "internalType": "bytes",
              "name": "data",
              "type": "bytes"
            }
          ],
          "internalType": "struct IEscrow.DepositVerifierData[]",
          "name": "_verifierData",
          "type": "tuple[]"
        },
        {
          "components": [
            {
              "internalType": "bytes32",
              "name": "code",
              "type": "bytes32"
            },
            {
              "internalType": "uint256",
              "name": "conversionRate",
              "type": "uint256"
            }
          ],
          "internalType": "struct IEscrow.Currency[][]",
          "name": "_currencies",
          "type": "tuple[][]"
        }
      ],
      "name": "createDeposit",
      "outputs": [
        {
          "internalType": "uint256",
          "name": "depositId",
          "type": "uint256"
        }
      ],
      "stateMutability": "nonpayable",
      "type": "function"
    },
    {
      "inputs": [],
      "name": "depositCounter",
      "outputs": [
        {
          "internalType": "uint256",
          "name": "",
          "type": "uint256"
        }
      ],
      "stateMutability": "view",
      "type": "function"
    },
    {
      "inputs": [
        {
          "internalType": "uint256",
          "name": "depositId",
          "type": "uint256"
        },
        {
          "internalType": "address",
          "name": "verifier",
          "type": "address"
        },
        {
          "internalType": "uint256",
          "name": "index",
          "type": "uint256"
        }
      ],
      "name": "depositCurrencies",
      "outputs": [
        {
          "internalType": "bytes32",
          "name": "",
          "type": "bytes32"
        }
      ],
      "stateMutability": "view",
      "type": "function"
    },
    {
      "inputs": [
        {
          "internalType": "uint256",
          "name": "depositId",
          "type": "uint256"
        },
        {
          "internalType": "address",
          "name": "verifier",
          "type": "address"
        },
        {
          "internalType": "bytes32",
          "name": "fiatCurrency",
          "type": "bytes32"
        }
      ],
      "name": "depositCurrencyConversionRate",
      "outputs": [
        {
          "internalType": "uint256",
          "name": "",
          "type": "uint256"
        }
      ],
      "stateMutability": "view",
      "type": "function"
    },
    {
      "inputs": [
        {
          "internalType": "uint256",
          "name": "depositId",
          "type": "uint256"
        },
        {
          "internalType": "address",
          "name": "verifier",
          "type": "address"
        }
      ],
      "name": "depositVerifierData",
      "outputs": [
        {
          "components": [
            {
              "internalType": "string",
              "name": "payeeDetails",
              "type": "string"
            },
            {
              "internalType": "bytes",
              "name": "data",
              "type": "bytes"
            }
          ],
          "internalType": "struct IEscrow.DepositVerifierData",
          "name": "",
          "type": "tuple"
        }
      ],
      "stateMutability": "view",
      "type": "function"
    },
    {
      "inputs": [
        {
          "internalType": "uint256",
          "name": "depositId",
          "type": "uint256"
        },
        {
          "internalType": "uint256",
          "name": "index",
          "type": "uint256"
        }
      ],
      "name": "depositVerifiers",
      "outputs": [
        {
          "internalType": "address",
          "name": "",
          "type": "address"
        }
      ],
      "stateMutability": "view",
      "type": "function"
    },
    {
      "inputs": [
        {
          "internalType": "uint256",
          "name": "depositId",
          "type": "uint256"
        }
      ],
      "name": "deposits",
      "outputs": [
        {
          "internalType": "address",
          "name": "depositor",
          "type": "address"
        },
        {
          "internalType": "contract IERC20",
          "name": "token",
          "type": "address"
        },
        {
          "internalType": "uint256",
          "name": "amount",
          "type": "uint256"
        },
        {
          "components": [
            {
              "internalType": "uint256",
              "name": "min",
              "type": "uint256"
            },
            {
              "internalType": "uint256",
              "name": "max",
              "type": "uint256"
            }
          ],
          "internalType": "struct IEscrow.Range",
          "name": "intentAmountRange",
          "type": "tuple"
        },
        {
          "internalType": "bool",
          "name": "acceptingIntents",
          "type": "bool"
        },
        {
          "internalType": "uint256",
          "name": "remainingDeposits",
          "type": "uint256"
        },
        {
          "internalType": "uint256",
          "name": "outstandingIntentAmount",
          "type": "uint256"
        }
      ],
      "stateMutability": "view",
      "type": "function"
    },
    {
      "inputs": [
        {
          "internalType": "bytes",
          "name": "_paymentProof",
          "type": "bytes"
        },
        {
          "internalType": "uint256",
          "name": "_intentId",
          "type": "uint256"
        }
      ],
      "name": "fulfillIntent",
      "outputs": [],
      "stateMutability": "nonpayable",
      "type": "function"
    },
    {
      "inputs": [
        {
          "internalType": "uint256",
          "name": "_depositId",
          "type": "uint256"
        }
      ],
      "name": "getDepositIntentIds",
      "outputs": [
        {
          "internalType": "uint256[]",
          "name": "",
          "type": "uint256[]"
        }
      ],
      "stateMutability": "view",
      "type": "function"
    },
    {
      "inputs": [
        {
          "internalType": "uint256",
          "name": "_depositId",
          "type": "uint256"
        },
        {
          "internalType": "uint256",
          "name": "_amount",
          "type": "uint256"
        }
      ],
      "name": "increaseDeposit",
      "outputs": [],
      "stateMutability": "nonpayable",
      "type": "function"
    },
    {
      "inputs": [
        {
          "internalType": "address",
          "name": "_owner",
          "type": "address"
        },
        {
          "internalType": "uint256",
          "name": "_intentExpirationPeriod",
          "type": "uint256"
        },
        {
          "internalType": "string",
          "name": "_chainName",
          "type": "string"
        }
      ],
      "name": "initialize",
      "outputs": [],
      "stateMutability": "nonpayable",
      "type": "function"
    },
    {
      "inputs": [],
      "name": "intentCount",
      "outputs": [
        {
          "internalType": "uint256",
          "name": "",
          "type": "uint256"
        }
      ],
      "stateMutability": "view",
      "type": "function"
    },
    {
      "inputs": [],
      "name": "intentExpirationPeriod",
      "outputs": [
        {
          "internalType": "uint256",
          "name": "",
          "type": "uint256"
        }
      ],
      "stateMutability": "view",
      "type": "function"
    },
    {
      "inputs": [
        {
          "internalType": "uint256",
          "name": "intentId",
          "type": "uint256"
        }
      ],
      "name": "intents",
      "outputs": [
        {
          "internalType": "address",
          "name": "owner",
          "type": "address"
        },
        {
          "internalType": "address",
          "name": "to",
          "type": "address"
        },
        {
          "internalType": "uint256",
          "name": "depositId",
          "type": "uint256"
        },
        {
          "internalType": "uint256",
          "name": "amount",
          "type": "uint256"
        },
        {
          "internalType": "uint256",
          "name": "timestamp",
          "type": "uint256"
        },
        {
          "internalType": "address",
          "name": "paymentVerifier",
          "type": "address"
        },
        {
          "internalType": "bytes32",
          "name": "fiatCurrency",
          "type": "bytes32"
        },
        {
          "internalType": "uint256",
          "name": "conversionRate",
          "type": "uint256"
        }
      ],
      "stateMutability": "view",
      "type": "function"
    },
    {
      "inputs": [],
      "name": "maxIntentsPerDeposit",
      "outputs": [
        {
          "internalType": "uint256",
          "name": "",
          "type": "uint256"
        }
      ],
      "stateMutability": "view",
      "type": "function"
    },
    {
      "inputs": [],
      "name": "owner",
      "outputs": [
        {
          "internalType": "address",
          "name": "",
          "type": "address"
        }
      ],
      "stateMutability": "view",
      "type": "function"
    },
    {
      "inputs": [],
      "name": "pause",
      "outputs": [],
      "stateMutability": "nonpayable",
      "type": "function"
    },
    {
      "inputs": [],
      "name": "paused",
      "outputs": [
        {
          "internalType": "bool",
          "name": "",
          "type": "bool"
        }
      ],
      "stateMutability": "view",
      "type": "function"
    },
    {
      "inputs": [],
      "name": "proxiableUUID",
      "outputs": [
        {
          "internalType": "bytes32",
          "name": "",
          "type": "bytes32"
        }
      ],
      "stateMutability": "view",
      "type": "function"
    },
    {
      "inputs": [
        {
          "internalType": "uint256",
          "name": "_intentId",
          "type": "uint256"
        }
      ],
      "name": "releaseFundsToPayer",
      "outputs": [],
      "stateMutability": "nonpayable",
      "type": "function"
    },
    {
      "inputs": [
        {
          "internalType": "address",
          "name": "_verifier",
          "type": "address"
        }
      ],
      "name": "removeWhitelistedPaymentVerifier",
      "outputs": [],
      "stateMutability": "nonpayable",
      "type": "function"
    },
    {
      "inputs": [],
      "name": "renounceOwnership",
      "outputs": [],
      "stateMutability": "nonpayable",
      "type": "function"
    },
    {
      "inputs": [
        {
          "internalType": "uint256",
          "name": "_intentExpirationPeriod",
          "type": "uint256"
        }
      ],
      "name": "setIntentExpirationPeriod",
      "outputs": [],
      "stateMutability": "nonpayable",
      "type": "function"
    },
    {
      "inputs": [
        {
          "internalType": "uint256",
          "name": "_maxIntentsPerDeposit",
          "type": "uint256"
        }
      ],
      "name": "setMaxIntentsPerDeposit",
      "outputs": [],
      "stateMutability": "nonpayable",
      "type": "function"
    },
    {
      "inputs": [
        {
          "internalType": "uint256",
          "name": "_depositId",
          "type": "uint256"
        },
        {
          "internalType": "uint256",
          "name": "_amount",
          "type": "uint256"
        },
        {
          "internalType": "address",
          "name": "_to",
          "type": "address"
        },
        {
          "internalType": "address",
          "name": "_verifier",
          "type": "address"
        },
        {
          "internalType": "bytes32",
          "name": "_fiatCurrency",
          "type": "bytes32"
        }
      ],
      "name": "signalIntent",
      "outputs": [],
      "stateMutability": "nonpayable",
      "type": "function"
    },
    {
      "inputs": [
        {
          "internalType": "address",
          "name": "newOwner",
          "type": "address"
        }
      ],
      "name": "transferOwnership",
      "outputs": [],
      "stateMutability": "nonpayable",
      "type": "function"
    },
    {
      "inputs": [],
      "name": "unpause",
      "outputs": [],
      "stateMutability": "nonpayable",
      "type": "function"
    },
    {
      "inputs": [
        {
          "internalType": "uint256",
          "name": "_depositId",
          "type": "uint256"
        },
        {
          "internalType": "address",
          "name": "_verifier",
          "type": "address"
        },
        {
          "internalType": "bytes32",
          "name": "_fiatCurrency",
          "type": "bytes32"
        },
        {
          "internalType": "uint256",
          "name": "_newConversionRate",
          "type": "uint256"
        }
      ],
      "name": "updateDepositConversionRate",
      "outputs": [],
      "stateMutability": "nonpayable",
      "type": "function"
    },
    {
      "inputs": [
        {
          "internalType": "uint256",
          "name": "_depositId",
          "type": "uint256"
        },
        {
          "internalType": "uint256",
          "name": "_min",
          "type": "uint256"
        },
        {
          "internalType": "uint256",
          "name": "_max",
          "type": "uint256"
        }
      ],
      "name": "updateDepositIntentAmountRange",
      "outputs": [],
      "stateMutability": "nonpayable",
      "type": "function"
    },
    {
      "inputs": [
        {
          "internalType": "address",
          "name": "newImplementation",
          "type": "address"
        },
        {
          "internalType": "bytes",
          "name": "data",
          "type": "bytes"
        }
      ],
      "name": "upgradeToAndCall",
      "outputs": [],
      "stateMutability": "payable",
      "type": "function"
    },
    {
      "inputs": [
        {
          "internalType": "address",
          "name": "verifier",
          "type": "address"
        }
      ],
      "name": "whitelistedPaymentVerifiers",
      "outputs": [
        {
          "internalType": "bool",
          "name": "",
          "type": "bool"
        }
      ],
      "stateMutability": "view",
      "type": "function"
    },
    {
      "inputs": [
        {
          "internalType": "uint256",
          "name": "_depositId",
          "type": "uint256"
        }
      ],
      "name": "withdrawDeposit",
      "outputs": [],
      "stateMutability": "nonpayable",
      "type": "function"
    }
  ],
  "transactionHash": "0x3dfa1e799cd8d5cca98bd1349eb224dd55a07914ad27338f9baecf4621a3de23",
  "args": [],
  "numDeployments": 1,
  "solcInputHash": "6b17787d7bb9ddeda626e4fb7925919f",
  "bytecode": "0x60a060405230608052348015610013575f5ffd5b5061001c610021565b6100d3565b7ff0c57e16840df040f15088dc2f81fe391c3923bec73e23a9662efc9c229c6a00805468010000000000000000900460ff16156100715760405163f92ee8a960e01b815260040160405180910390fd5b80546001600160401b03908116146100d05780546001600160401b0319166001600160401b0390811782556040519081527fc7f505b2f371ae2175ee4913f4499e1f2633a7b5936321eed1cdaeb6115181d29060200160405180910390a15b50565b6080516159da6100f95f395f8181613ed301528181613efc01526140ac01526159da5ff3fe608060405260043610610291575f3560e01c8063752cea5511610165578063b02c43d0116100c6578063ecb3dc881161007c578063f02ff21d11610062578063f02ff21d146108e3578063f2fde38b1461090f578063fd28e7051461092e575f5ffd5b8063ecb3dc8814610891578063ede410b5146108c4575f5ffd5b8063b55bca17116100ac578063b55bca17146107fd578063b97ca08914610853578063bbc06c9514610872575f5ffd5b8063b02c43d0146107ac578063b1626ebb146107de575f5ffd5b8063a0a31aac1161011b578063a1a954b711610101578063a1a954b714610712578063a5989a7e14610745578063ad3cb1cc14610764575f5ffd5b8063a0a31aac146106c0578063a16087d2146106df575f5ffd5b80638456cb591161014b5780638456cb591461064457806388f5d53a146106585780638da5cb5b14610684575f5ffd5b8063752cea551461060657806381d6095614610625575f5ffd5b80633b2fc2951161020f5780634f1ef286116101c55780635c975abb116101ab5780635c975abb1461055d5780635efc5e7e1461059f578063715018a6146105f2575f5ffd5b80634f1ef2861461053657806352d1902d14610549575f5ffd5b806342987349116101f5578063429873491461041e57806346a1a0951461043d5780634de088ff14610517575f5ffd5b80633b2fc295146103eb5780633f4ba83a1461040a575f5ffd5b80631c93b03a116102645780632c6bc3e51161024a5780632c6bc3e51461038e57806333289a46146103ad5780633a06ff6b146103cc575f5ffd5b80631c93b03a1461034e57806327009a171461036f575f5ffd5b80630a13465a146102955780630cdf9008146102b657806310bfda31146102f85780631c0dbdf214610317575b5f5ffd5b3480156102a0575f5ffd5b506102b46102af366004614ca7565b61094d565b005b3480156102c1575f5ffd5b507f2240ec17ed99e18fb5366c392e47eb71a27b90b5d0e7350fd633d34acc81e901545b6040519081526020015b60405180910390f35b348015610303575f5ffd5b506102b4610312366004614cd5565b610b2e565b348015610322575f5ffd5b50610336610331366004614d47565b61107b565b6040516001600160a01b0390911681526020016102ef565b348015610359575f5ffd5b506103626110d6565b6040516102ef9190614d95565b34801561037a575f5ffd5b506102e5610389366004614de8565b611185565b348015610399575f5ffd5b506102b46103a8366004614edd565b61178e565b3480156103b8575f5ffd5b506102b46103c7366004614f17565b6119c1565b3480156103d7575f5ffd5b506102e56103e6366004614f2e565b611b21565b3480156103f6575f5ffd5b506102e5610405366004614f2e565b611b72565b348015610415575f5ffd5b506102b4611bd6565b348015610429575f5ffd5b506102b4610438366004614f17565b611be8565b348015610448575f5ffd5b506104c7610457366004614f17565b5f9081527f2240ec17ed99e18fb5366c392e47eb71a27b90b5d0e7350fd633d34acc81e9056020526040902080546001820154600283015460038401546004850154600586015460068701546007909701546001600160a01b039687169895871697949693959294939091169291565b604080516001600160a01b03998a16815297891660208901528701959095526060860193909352608085019190915290931660a083015260c082019290925260e0810191909152610100016102ef565b348015610522575f5ffd5b506102b4610531366004614f17565b611cc6565b6102b4610544366004615030565b611daa565b348015610554575f5ffd5b506102e5611dc9565b348015610568575f5ffd5b507fcd5ed15c6e187e77e9aee88184c21f4f2182ab5827cb3b7e07fbedcd63f033005460ff165b60405190151581526020016102ef565b3480156105aa575f5ffd5b506102e56105b9366004615090565b6001600160a01b03165f9081527f2240ec17ed99e18fb5366c392e47eb71a27b90b5d0e7350fd633d34acc81e903602052604090205490565b3480156105fd575f5ffd5b506102b4611df7565b348015610611575f5ffd5b506102b46106203660046150ab565b611e08565b348015610630575f5ffd5b506102b461063f3660046150f9565b612215565b34801561064f575f5ffd5b506102b46123e9565b348015610663575f5ffd5b50610677610672366004614ca7565b6123f9565b6040516102ef9190615161565b34801561068f575f5ffd5b507f9016d09d72d40fdae2fd8ceac6b6234c7706214fd39c1cd1e609a0528c199300546001600160a01b0316610336565b3480156106cb575f5ffd5b506102b46106da366004614f17565b61257e565b3480156106ea575f5ffd5b507f2240ec17ed99e18fb5366c392e47eb71a27b90b5d0e7350fd633d34acc81e90d546102e5565b34801561071d575f5ffd5b507f2240ec17ed99e18fb5366c392e47eb71a27b90b5d0e7350fd633d34acc81e90b546102e5565b348015610750575f5ffd5b506102b461075f366004615090565b612723565b34801561076f575f5ffd5b506103626040518060400160405280600581526020017f352e302e3000000000000000000000000000000000000000000000000000000081525081565b3480156107b7575f5ffd5b506107cb6107c6366004614f17565b6128ac565b6040516102ef9796959493929190615199565b3480156107e9575f5ffd5b506102e56107f83660046151ee565b612955565b348015610808575f5ffd5b5061058f610817366004615090565b6001600160a01b03165f9081527f2240ec17ed99e18fb5366c392e47eb71a27b90b5d0e7350fd633d34acc81e90a602052604090205460ff1690565b34801561085e575f5ffd5b506102b461086d366004615218565b6129ae565b34801561087d575f5ffd5b506102b461088c366004615090565b612b27565b34801561089c575f5ffd5b507f2240ec17ed99e18fb5366c392e47eb71a27b90b5d0e7350fd633d34acc81e90c546102e5565b3480156108cf575f5ffd5b506102b46108de366004614f17565b612c28565b3480156108ee575f5ffd5b506109026108fd366004614f17565b612e31565b6040516102ef9190615241565b34801561091a575f5ffd5b506102b4610929366004615090565b612eb2565b348015610939575f5ffd5b506102b4610948366004614d47565b612f08565b61095561306e565b5f8281527f2240ec17ed99e18fb5366c392e47eb71a27b90b5d0e7350fd633d34acc81e9046020526040902080547f2240ec17ed99e18fb5366c392e47eb71a27b90b5d0e7350fd633d34acc81e90091906001600160a01b031633146109e7576040517fce8c104800000000000000000000000000000000000000000000000000000000815260040160405180910390fd5b6001600160a01b038316610a27576040517fe6c4247b00000000000000000000000000000000000000000000000000000000815260040160405180910390fd5b80546001600160a01b0390811690841603610a6e576040517fe6c4247b00000000000000000000000000000000000000000000000000000000815260040160405180910390fd5b80546001600160a01b038481167fffffffffffffffffffffffff00000000000000000000000000000000000000008316178355165f8181526002840160205260409020610abb90866130ca565b6001600160a01b038481165f81815260028601602090815260408083208054600181018255908452928290209092018990558151938516845283019190915286917fc8889351e4b8eb438f8ea02f9f7cccc66435b357a9e8b482205df886f57db607910160405180910390a25050505050565b610b3661306e565b5f8181527f2240ec17ed99e18fb5366c392e47eb71a27b90b5d0e7350fd633d34acc81e9056020908152604080832081516101008101835281546001600160a01b0390811682526001830154811682860152600283015482850181905260038401546060840152600484015460808401526005840154821660a08401908152600685015460c085015260079094015460e084015286527f2240ec17ed99e18fb5366c392e47eb71a27b90b5d0e7350fd633d34acc81e9049094529190932092517f2240ec17ed99e18fb5366c392e47eb71a27b90b5d0e7350fd633d34acc81e9009391928116610c52576040517f61ae648300000000000000000000000000000000000000000000000000000000815260040160405180910390fd5b6040808401515f9081526007860160209081528282206001600160a01b038516835290528181208251808401909352805491929182908290610c9390615283565b80601f0160208091040260200160405190810160405280929190818152602001828054610cbf90615283565b8015610d0a5780601f10610ce157610100808354040283529160200191610d0a565b820191905f5260205f20905b815481529060010190602001808311610ced57829003601f168201915b50505050508152602001600182018054610d2390615283565b80601f0160208091040260200160405190810160405280929190818152602001828054610d4f90615283565b8015610d9a5780601f10610d7157610100808354040283529160200191610d9a565b820191905f5260205f20905b815481529060010190602001808311610d7d57829003601f168201915b50505050508152505090505f5f836001600160a01b03166384c7b4396040518061010001604052808d8d8080601f0160208091040260200160405190810160405280939291908181526020018383808284375f81840152601f19601f820116905080830192505050505050508152602001886001015f9054906101000a90046001600160a01b03166001600160a01b031681526020018960600151815260200189608001518152602001865f015181526020018960c0015181526020018960e00151815260200186602001518152506040518263ffffffff1660e01b8152600401610e8591906152d4565b60408051808303815f875af1158015610ea0573d5f5f3e3d5ffd5b505050506040513d601f19601f82011682018060405250810190610ec49190615384565b9150915081610f1a5760405162461bcd60e51b815260206004820152601b60248201527f5061796d656e7420766572696669636174696f6e206661696c6564000000000060448201526064015b60405180910390fd5b5f87610f258a6131f1565b604051602001610f369291906153c5565b60408051601f1981840301815290829052610f5391602001614d95565b604051602081830303815290604052805190602001209050818114610fba5760405162461bcd60e51b815260206004820152601460248201527f496e74656e742068617368206d69736d617463680000000000000000000000006044820152606401610f11565b610fc4868a61334b565b8660600151866007015f828254610fdb919061548b565b909155505060018601546001600160a01b0316610ff8818961348f565b856001600160a01b031688604001518b7f14dae3c62db8b2fb352422b6d56ec3ae390ab9fceae841f52ee0dda0b6b5027d8b5f01518c602001518d60600151604051611065939291906001600160a01b039384168152919092166020820152604081019190915260600190565b60405180910390a4505050505050505050505050565b5f8281527f2240ec17ed99e18fb5366c392e47eb71a27b90b5d0e7350fd633d34acc81e906602052604081208054839081106110b9576110b961549e565b5f918252602090912001546001600160a01b031690505b92915050565b60607f2240ec17ed99e18fb5366c392e47eb71a27b90b5d0e7350fd633d34acc81e900805461110490615283565b80601f016020809104026020016040519081016040528092919081815260200182805461113090615283565b801561117b5780601f106111525761010080835404028352916020019161117b565b820191905f5260205f20905b81548152906001019060200180831161115e57829003601f168201915b5050505050905090565b5f61118e61306e565b6111ac896111a1368b90038b018b6154cb565b8989898989896134ad565b7f2240ec17ed99e18fb5366c392e47eb71a27b90b5d0e7350fd633d34acc81e90c80547f2240ec17ed99e18fb5366c392e47eb71a27b90b5d0e7350fd633d34acc81e90091905f906111fd906154fc565b9182905550335f81815260028401602090815260408083208054600181018255908452928290209092018490558151610100810183529283526001600160a01b038f169083015281018c90529092506060810161125f368c90038c018c6154cb565b81526001602080830182905260408084018f90525f6060808601829052825182815280850184526080968701528882526004888101855291839020875181547fffffffffffffffffffffffff00000000000000000000000000000000000000009081166001600160a01b0392831617835589870151978301805490911697909116969096179095559186015160028501559085015180516003850155820151908301559183015160058201805460ff191691151591909117905560a0830151600682015560c0830151600782015560e08301518051919261134892600885019290910190614be8565b505060408051848152336020808301919091526001600160a01b038f1682840152606082018e90528c3560808301528c013560a082015290517f9ab0125ca9a98b0e586ba347cf756fe0f5527f817f711972b88cdbaf4b3a43f992509081900360c00190a15f5b8781101561176a575f8989838181106113ca576113ca61549e565b90506020020160208101906113df9190615090565b5f85815260078501602090815260408083206001600160a01b0385168452909152902080549192509061141190615283565b1590506114605760405162461bcd60e51b815260206004820152601c60248201527f5665726966696572206461746120616c726561647920657869737473000000006044820152606401610f11565b8787838181106114725761147261549e565b90506020028101906114849190615514565b5f85815260078501602090815260408083206001600160a01b038616845290915290206114b182826156b6565b50505f8481526006840160209081526040822080546001810182559083529082200180547fffffffffffffffffffffffff0000000000000000000000000000000000000000166001600160a01b0384161790558888848181106115165761151661549e565b90506020028101906115289190615514565b6115329080615550565b604051602001611543929190615793565b604051602081830303815290604052805190602001209050816001600160a01b0316857f1d45e48463f0575071b4e1747b7bed9660001ccbbe47c2e8b9db9f32ba584f3e8360405161159791815260200190565b60405180910390a35f5b8787858181106115b3576115b361549e565b90506020028101906115c591906157a2565b905081101561175f575f8888868181106115e1576115e161549e565b90506020028101906115f391906157a2565b838181106116035761160361549e565b90506040020180360381019061161991906154cb565b5f88815260088801602090815260408083206001600160a01b0389168452825280832084518452909152902054909150156116bc5760405162461bcd60e51b815260206004820152602760248201527f43757272656e637920636f6e76657273696f6e207261746520616c726561647960448201527f20657869737473000000000000000000000000000000000000000000000000006064820152608401610f11565b602081810180515f8a815260088a01845260408082206001600160a01b038a16808452908652818320875184528652818320939093558b825260098b018552808220838352855280822086518154600181018355918452928690200191909155845192519051908152919290918a917f074bccd7762d78b7ef74448569e5c21e47ec220937f028a23b14f2eb0caf39aa910160405180910390a4506001016115a1565b5050506001016113af565b506117806001600160a01b038c1633308d61399d565b509998505050505050505050565b61179661306e565b5f8481527f2240ec17ed99e18fb5366c392e47eb71a27b90b5d0e7350fd633d34acc81e904602090815260408083207f2240ec17ed99e18fb5366c392e47eb71a27b90b5d0e7350fd633d34acc81e90883528184206001600160a01b03888116865290845282852087865290935292205482547f2240ec17ed99e18fb5366c392e47eb71a27b90b5d0e7350fd633d34acc81e9009392163314611865576040517fce8c104800000000000000000000000000000000000000000000000000000000815260040160405180910390fd5b805f036118da5760405162461bcd60e51b815260206004820152602260248201527f43757272656e6379206f72207665726966696572206e6f7420737570706f727460448201527f65640000000000000000000000000000000000000000000000000000000000006064820152608401610f11565b5f841161194f5760405162461bcd60e51b815260206004820152602660248201527f436f6e76657273696f6e2072617465206d75737420626520677265617465722060448201527f7468616e203000000000000000000000000000000000000000000000000000006064820152608401610f11565b5f87815260088401602090815260408083206001600160a01b038a16808552908352818420898552835292819020879055805188815291820187905289917f4596f41d8373f6191a26628c8a22c2bfc58fda2c24b5db361f564592ab798d78910160405180910390a350505050505050565b5f8181527f2240ec17ed99e18fb5366c392e47eb71a27b90b5d0e7350fd633d34acc81e9046020526040902080547f2240ec17ed99e18fb5366c392e47eb71a27b90b5d0e7350fd633d34acc81e90091906001600160a01b03163314611a53576040517fce8c104800000000000000000000000000000000000000000000000000000000815260040160405180910390fd5b5f5f611a5e85613a19565b91509150611a6c8383613c1d565b5f818460060154611a7d9190615806565b905081846007015f828254611a92919061548b565b909155505083546040518281526001600160a01b039091169087907fae1f357660ab777dcfd38c0ab6357834684ec26289ecfa07ec65dbf6c3c643129060200160405180910390a35f600685015560058401805460ff1916905560018401546001600160a01b0316611b048786613c78565b611b186001600160a01b0382163384613db1565b50505050505050565b5f8381527f2240ec17ed99e18fb5366c392e47eb71a27b90b5d0e7350fd633d34acc81e908602090815260408083206001600160a01b038616845282528083208484529091529020545b9392505050565b5f8381527f2240ec17ed99e18fb5366c392e47eb71a27b90b5d0e7350fd633d34acc81e909602090815260408083206001600160a01b03861684529091528120805483908110611bc457611bc461549e565b905f5260205f20015490509392505050565b611bde613de2565b611be6613e56565b565b611bf0613de2565b7f2240ec17ed99e18fb5366c392e47eb71a27b90b5d0e7350fd633d34acc81e9005f829003611c875760405162461bcd60e51b815260206004820152602b60248201527f4d617820696e74656e742065787069726174696f6e20706572696f642063616e60448201527f6e6f74206265207a65726f0000000000000000000000000000000000000000006064820152608401610f11565b600b81018290556040518281527f55e3f6b95de9a0ec782f892e93fafe4e56be0696df204ddf8e0a40a9a713a803906020015b60405180910390a15050565b611cce613de2565b7f2240ec17ed99e18fb5366c392e47eb71a27b90b5d0e7350fd633d34acc81e90081611d625760405162461bcd60e51b815260206004820152602260248201527f4d617820696e74656e7473206d7573742062652067726561746572207468616e60448201527f20300000000000000000000000000000000000000000000000000000000000006064820152608401610f11565b600d810180549083905560408051828152602081018590527f3e3763b4c7b717dc82c9bd73bcdfe85f3b5ee0ef89c345cb1c9fe3e681760b58910160405180910390a1505050565b611db2613ec8565b611dbb82613f98565b611dc58282613fa0565b5050565b5f611dd26140a1565b507f360894a13ba1a3210667c828492db98dca3e2076cc3735a920a3ca505d382bbc90565b611dff613de2565b611be65f614103565b611e1061306e565b5f8581527f2240ec17ed99e18fb5366c392e47eb71a27b90b5d0e7350fd633d34acc81e904602052604090207f2240ec17ed99e18fb5366c392e47eb71a27b90b5d0e7350fd633d34acc81e90090611e6c87828888888861418b565b5f826001015f8154611e7d906154fc565b91905081905590508682600601541080611e9f5750600d830154600883015410155b15611fce575f5f611eaf8a613a19565b9150915088818560060154611ec49190615806565b1015611f125760405162461bcd60e51b815260206004820152601460248201527f4e6f7420656e6f756768206c69717569646974790000000000000000000000006044820152606401610f11565b611f1c8483613c1d565b80846006015f828254611f2f9190615806565b9250508190555080846007015f828254611f49919061548b565b9091555050600d850154600885015410611fcb5760405162461bcd60e51b815260206004820152602360248201527f4d6178696d756d20696e74656e747320706572206465706f736974207265616360448201527f68656400000000000000000000000000000000000000000000000000000000006064820152608401610f11565b50505b5f836008015f8a81526020019081526020015f205f876001600160a01b03166001600160a01b031681526020019081526020015f205f8681526020019081526020015f20549050604051806101000160405280336001600160a01b03168152602001886001600160a01b031681526020018a8152602001898152602001428152602001876001600160a01b0316815260200186815260200182815250846005015f8481526020019081526020015f205f820151815f015f6101000a8154816001600160a01b0302191690836001600160a01b031602179055506020820151816001015f6101000a8154816001600160a01b0302191690836001600160a01b0316021790555060408201518160020155606082015181600301556080820151816004015560a0820151816005015f6101000a8154816001600160a01b0302191690836001600160a01b0316021790555060c0820151816006015560e0820151816007015590505081846003015f336001600160a01b03166001600160a01b031681526020019081526020015f208190555087836006015f828254612171919061548b565b9250508190555087836007015f82825461218b9190615806565b90915550506008830180546001810182555f91825260209182902001839055604080513381526001600160a01b038a81169382019390935291881682820152606082018a90526080820184905260a08201839052517ff4b506b983c1f751789a16b05021ff2c8398b16a24336261c8aa2b1ef92d53479181900360c00190a1505050505050505050565b5f61221e614567565b805490915060ff68010000000000000000820416159067ffffffffffffffff165f8115801561224a5750825b90505f8267ffffffffffffffff1660011480156122665750303b155b905081158015612274575080155b156122ab576040517ff92ee8a900000000000000000000000000000000000000000000000000000000815260040160405180910390fd5b84547fffffffffffffffffffffffffffffffffffffffffffffffff0000000000000000166001178555831561230c5784547fffffffffffffffffffffffffffffffffffffffffffffff00ffffffffffffffff16680100000000000000001785555b6123158861458f565b61231d6145a0565b6123256145a0565b7f2240ec17ed99e18fb5366c392e47eb71a27b90b5d0e7350fd633d34acc81e90b8790557f2240ec17ed99e18fb5366c392e47eb71a27b90b5d0e7350fd633d34acc81e900806123758882615819565b506064600d9091015583156123df5784547fffffffffffffffffffffffffffffffffffffffffffffff00ffffffffffffffff168555604051600181527fc7f505b2f371ae2175ee4913f4499e1f2633a7b5936321eed1cdaeb6115181d29060200160405180910390a15b5050505050505050565b6123f1613de2565b611be66145a8565b60408051808201825260608082526020808301919091525f8581527f2240ec17ed99e18fb5366c392e47eb71a27b90b5d0e7350fd633d34acc81e90782528381206001600160a01b0386168252909152829020825180840190935280549192918290829061246690615283565b80601f016020809104026020016040519081016040528092919081815260200182805461249290615283565b80156124dd5780601f106124b4576101008083540402835291602001916124dd565b820191905f5260205f20905b8154815290600101906020018083116124c057829003601f168201915b505050505081526020016001820180546124f690615283565b80601f016020809104026020016040519081016040528092919081815260200182805461252290615283565b801561256d5780601f106125445761010080835404028352916020019161256d565b820191905f5260205f20905b81548152906001019060200180831161255057829003601f168201915b505050505081525050905092915050565b5f8181527f2240ec17ed99e18fb5366c392e47eb71a27b90b5d0e7350fd633d34acc81e9056020908152604080832081516101008101835281546001600160a01b0390811682526001830154811682860152600283015482850181905260038401546060840152600484015460808401526005840154821660a0840152600684015460c084015260079093015460e08301529185527f2240ec17ed99e18fb5366c392e47eb71a27b90b5d0e7350fd633d34acc81e904909352922081517f2240ec17ed99e18fb5366c392e47eb71a27b90b5d0e7350fd633d34acc81e90093163314612696576040517fff9b770b00000000000000000000000000000000000000000000000000000000815260040160405180910390fd5b6126a0818561334b565b8160600151816006015f8282546126b79190615806565b909155505060608201516007820180545f906126d490849061548b565b90915550508151604080518681526001600160a01b0390921660208301527f48539a6710fcc0ad9cae060e0c3788155ce5246980a2a7590c2c7ebdfcd4cccd910160405180910390a150505050565b61272b613de2565b7f2240ec17ed99e18fb5366c392e47eb71a27b90b5d0e7350fd633d34acc81e9006001600160a01b0382166127c85760405162461bcd60e51b815260206004820152602760248201527f5061796d656e742076657269666965722063616e6e6f74206265207a65726f2060448201527f61646472657373000000000000000000000000000000000000000000000000006064820152608401610f11565b6001600160a01b0382165f908152600a8201602052604090205460ff16156128575760405162461bcd60e51b8152602060048201526024808201527f5061796d656e7420766572696669657220616c72656164792077686974656c6960448201527f73746564000000000000000000000000000000000000000000000000000000006064820152608401610f11565b6001600160a01b0382165f818152600a83016020908152604091829020805460ff1916600117905590519182527f523cfa2b29f53313e586b9901d7db418f7f9c2e403e4979222825740e39767e09101611cba565b5f5f5f6128ca60405180604001604052805f81526020015f81525090565b5050505f918252507f2240ec17ed99e18fb5366c392e47eb71a27b90b5d0e7350fd633d34acc81e90460209081526040918290208054600182015460028301546005840154600685015460078601548851808a0190995260038701548952600490960154968801969096526001600160a01b039384169793909216959094909360ff90921692909190565b6001600160a01b0382165f9081527f2240ec17ed99e18fb5366c392e47eb71a27b90b5d0e7350fd633d34acc81e9026020526040812080548390811061299d5761299d61549e565b905f5260205f200154905092915050565b6129b661306e565b5f8381527f2240ec17ed99e18fb5366c392e47eb71a27b90b5d0e7350fd633d34acc81e9046020526040902080547f2240ec17ed99e18fb5366c392e47eb71a27b90b5d0e7350fd633d34acc81e90091906001600160a01b03163314612a48576040517fce8c104800000000000000000000000000000000000000000000000000000000815260040160405180910390fd5b5f84118015612a575750828411155b8015612a67575080600201548311155b612a9d576040517f04d6e90300000000000000000000000000000000000000000000000000000000815260040160405180910390fd5b60408051808201825260038301805482526004840180546020808501918252855180870187528a815281018990529289905590879055835183518152905191810191909152918201869052606082018590529086907f6e73aefcee63d80e19a4c27d667655729950b1e8848e126d85a559510cb0c1fd9060800160405180910390a2505050505050565b612b2f613de2565b6001600160a01b0381165f9081527f2240ec17ed99e18fb5366c392e47eb71a27b90b5d0e7350fd633d34acc81e90a60205260409020547f2240ec17ed99e18fb5366c392e47eb71a27b90b5d0e7350fd633d34acc81e9009060ff16612bd75760405162461bcd60e51b815260206004820181905260248201527f5061796d656e74207665726966696572206e6f742077686974656c69737465646044820152606401610f11565b6001600160a01b0382165f818152600a83016020908152604091829020805460ff1916905590519182527efcc74f6f8ff0545ccd7e12a70bac45037644546df378bc3bd52973fcd7c05c9101611cba565b5f8181527f2240ec17ed99e18fb5366c392e47eb71a27b90b5d0e7350fd633d34acc81e9056020908152604080832081516101008101835281546001600160a01b0390811682526001830154811682860152600283015482850181905260038401546060840152600484015460808401526005840154821660a0840152600684015460c084015260079093015460e08301529185527f2240ec17ed99e18fb5366c392e47eb71a27b90b5d0e7350fd633d34acc81e904909352922081517f2240ec17ed99e18fb5366c392e47eb71a27b90b5d0e7350fd633d34acc81e9009316612d3e576040517f61ae648300000000000000000000000000000000000000000000000000000000815260040160405180910390fd5b80546001600160a01b03163314612d81576040517fce8c104800000000000000000000000000000000000000000000000000000000815260040160405180910390fd5b612d8b818561334b565b8160600151816007015f828254612da2919061548b565b909155505060018101546001600160a01b0316612dbf818461348f565b8260400151857fd5be022957fbbadd8f283b872d97bd4696d715ee72f3f9a4e128766ef3d6d1e6855f015186602001518760600151604051612e22939291906001600160a01b039384168152919092166020820152604081019190915260600190565b60405180910390a35050505050565b5f8181527f2240ec17ed99e18fb5366c392e47eb71a27b90b5d0e7350fd633d34acc81e9046020908152604091829020600801805483518184028101840190945280845260609392830182828015612ea657602002820191905f5260205f20905b815481526020019060010190808311612e92575b50505050509050919050565b612eba613de2565b6001600160a01b038116612efc576040517f1e4fbdf70000000000000000000000000000000000000000000000000000000081525f6004820152602401610f11565b612f0581614103565b50565b612f1061306e565b5f8281527f2240ec17ed99e18fb5366c392e47eb71a27b90b5d0e7350fd633d34acc81e9046020526040902080547f2240ec17ed99e18fb5366c392e47eb71a27b90b5d0e7350fd633d34acc81e90091906001600160a01b0316612fa0576040517f411321ed00000000000000000000000000000000000000000000000000000000815260040160405180910390fd5b5f8311612fd9576040517f2c5211c600000000000000000000000000000000000000000000000000000000815260040160405180910390fd5b6001810154612ff3906001600160a01b031633308661399d565b82816002015f8282546130069190615806565b9250508190555082816006015f8282546130209190615806565b90915550506002810154604080518581526020810192909252339186917f55d9d468c420c3892a429ebbcdaaf1ac722f8b49bba8b4f0b986cf6103f4fd29910160405180910390a350505050565b7fcd5ed15c6e187e77e9aee88184c21f4f2182ab5827cb3b7e07fbedcd63f033005460ff1615611be6576040517fd93c066500000000000000000000000000000000000000000000000000000000815260040160405180910390fd5b5f5f6131238480548060200260200160405190810160405280929190818152602001828054801561311857602002820191905f5260205f20905b815481526020019060010190808311613104575b505050505084614603565b91509150806131745760405162461bcd60e51b815260206004820152601560248201527f75696e74323536206e6f7420696e2061727261792e00000000000000000000006044820152606401610f11565b83545f906131849060019061548b565b90508083146131c65784818154811061319f5761319f61549e565b905f5260205f2001548584815481106131ba576131ba61549e565b5f918252602090912001555b848054806131d6576131d66158d4565b600190038181905f5260205f20015f90559055505b50505050565b6060815f0361323357505060408051808201909152600181527f3000000000000000000000000000000000000000000000000000000000000000602082015290565b815f5b811561325c5780613246816154fc565b91506132559050600a83615901565b9150613236565b5f8167ffffffffffffffff81111561327657613276614f63565b6040519080825280601f01601f1916602001820160405280156132a0576020820181803683370190505b509050815b8515613342576132b660018261548b565b90505f6132c4600a88615901565b6132cf90600a615939565b6132d9908861548b565b6132e4906030615950565b90505f8160f81b9050808484815181106133005761330061549e565b60200101907effffffffffffffffffffffffffffffffffffffffffffffffffffffffffffff191690815f1a905350613339600a89615901565b975050506132a5565b50949350505050565b5f8181527f2240ec17ed99e18fb5366c392e47eb71a27b90b5d0e7350fd633d34acc81e9056020818152604080842081516101008101835281546001600160a01b03908116808352600184018054831684880152600285018054858801526003860180546060870152600487018054608088015260058801805490961660a088015260068801805460c089015260078901805460e08a0152958d527f2240ec17ed99e18fb5366c392e47eb71a27b90b5d0e7350fd633d34acc81e9038b52988c208c90558c8c529990985285547fffffffffffffffffffffffff00000000000000000000000000000000000000009081169096558154861690915588905594879055948690558454909116909355839055919091557f2240ec17ed99e18fb5366c392e47eb71a27b90b5d0e7350fd633d34acc81e900906131eb60088501846130ca565b60208101516060820151611dc5916001600160a01b03851691613db1565b86517f2240ec17ed99e18fb5366c392e47eb71a27b90b5d0e7350fd633d34acc81e90090158015906134e457506020880151885111155b80156134f1575087518910155b613527576040517f04d6e90300000000000000000000000000000000000000000000000000000000815260040160405180910390fd5b856135745760405162461bcd60e51b815260206004820152601160248201527f496e76616c6964207665726966696572730000000000000000000000000000006044820152606401610f11565b8584146135c35760405162461bcd60e51b815260206004820152601560248201527f496e76616c6964207665726966696572206461746100000000000000000000006044820152606401610f11565b8582146136125760405162461bcd60e51b815260206004820152601960248201527f496e76616c69642063757272656e63696573206c656e677468000000000000006044820152606401610f11565b5f5b86811015613991575f88888381811061362f5761362f61549e565b90506020020160208101906136449190615090565b90506001600160a01b03811661369c5760405162461bcd60e51b815260206004820152601f60248201527f56657269666965722063616e6e6f74206265207a65726f2061646472657373006044820152606401610f11565b6001600160a01b0381165f908152600a8401602052604090205460ff166137055760405162461bcd60e51b815260206004820181905260248201527f5061796d656e74207665726966696572206e6f742077686974656c69737465646044820152606401610f11565b8686838181106137175761371761549e565b90506020028101906137299190615514565b6137339080615550565b90505f036137835760405162461bcd60e51b815260206004820152601d60248201527f50617965652064657461696c732063616e6e6f7420626520656d7074790000006044820152606401610f11565b5f5b8585848181106137975761379761549e565b90506020028101906137a991906157a2565b905081101561398757816001600160a01b0316633e1d0edc8787868181106137d3576137d361549e565b90506020028101906137e591906157a2565b848181106137f5576137f561549e565b9050604002015f01356040518263ffffffff1660e01b815260040161381c91815260200190565b602060405180830381865afa158015613837573d5f5f3e3d5ffd5b505050506040513d601f19601f8201168201806040525081019061385b9190615969565b6138cd5760405162461bcd60e51b815260206004820152602260248201527f43757272656e6379206e6f7420737570706f727465642062792076657269666960448201527f65720000000000000000000000000000000000000000000000000000000000006064820152608401610f11565b5f8686858181106138e0576138e061549e565b90506020028101906138f291906157a2565b838181106139025761390261549e565b905060400201602001351161397f5760405162461bcd60e51b815260206004820152602660248201527f436f6e76657273696f6e2072617465206d75737420626520677265617465722060448201527f7468616e203000000000000000000000000000000000000000000000000000006064820152608401610f11565b600101613785565b5050600101613614565b50505050505050505050565b6040516001600160a01b0384811660248301528381166044830152606482018390526131eb9186918216906323b872dd906084015b604051602081830303815290604052915060e01b6020820180517bffffffffffffffffffffffffffffffffffffffffffffffffffffffff8381831617835250505050614659565b5f8181527f2240ec17ed99e18fb5366c392e47eb71a27b90b5d0e7350fd633d34acc81e904602090815260408083206008018054825181850281018501909352808352606094937f2240ec17ed99e18fb5366c392e47eb71a27b90b5d0e7350fd633d34acc81e90093859390929091830182828015613ab557602002820191905f5260205f20905b815481526020019060010190808311613aa1575b50505050509050805167ffffffffffffffff811115613ad657613ad6614f63565b604051908082528060200260200182016040528015613aff578160200160208202803683370190505b5093505f5b8151811015613c15575f836005015f848481518110613b2557613b2561549e565b60209081029190910181015182528181019290925260409081015f2081516101008101835281546001600160a01b039081168252600183015481169482019490945260028201549281019290925260038101546060830152600481015460808301819052600582015490931660a0830152600681015460c08301526007015460e0820152600b8601549092504291613bbd9190615806565b1015613c0c57828281518110613bd557613bd561549e565b6020026020010151868381518110613bef57613bef61549e565b60209081029190910101526060810151613c099086615806565b94505b50600101613b04565b505050915091565b5f5b8151811015613c7357818181518110613c3a57613c3a61549e565b60200260200101515f14613c6b57613c6b83838381518110613c5e57613c5e61549e565b602002602001015161334b565b600101613c1f565b505050565b600681015460078201547f2240ec17ed99e18fb5366c392e47eb71a27b90b5d0e7350fd633d34acc81e900915f91613cb09190615806565b9050805f036131eb5782546001600160a01b03165f9081526002830160205260409020613cdd90856130ca565b613ce6846146de565b8254604080518681526001600160a01b0390921660208301527f8ac07cc6e38c6222dd0309c80353c1962354bacf222b825d7401cc80e93ff3cc910160405180910390a15f84815260048084016020526040822080547fffffffffffffffffffffffff000000000000000000000000000000000000000090811682556001820180549091169055600281018390556003810183905590810182905560058101805460ff19169055600681018290556007810182905590613da96008830182614c31565b505050505050565b6040516001600160a01b03838116602483015260448201839052613c7391859182169063a9059cbb906064016139d2565b33613e147f9016d09d72d40fdae2fd8ceac6b6234c7706214fd39c1cd1e609a0528c199300546001600160a01b031690565b6001600160a01b031614611be6576040517f118cdaa7000000000000000000000000000000000000000000000000000000008152336004820152602401610f11565b613e5e6148cd565b7fcd5ed15c6e187e77e9aee88184c21f4f2182ab5827cb3b7e07fbedcd63f03300805460ff191681557f5db9ee0a495bf2e6ff9c91a7834c1ba4fdd244a5e8aa4e537bd38aeae4b073aa335b6040516001600160a01b03909116815260200160405180910390a150565b306001600160a01b037f0000000000000000000000000000000000000000000000000000000000000000161480613f6157507f00000000000000000000000000000000000000000000000000000000000000006001600160a01b0316613f557f360894a13ba1a3210667c828492db98dca3e2076cc3735a920a3ca505d382bbc546001600160a01b031690565b6001600160a01b031614155b15611be6576040517fe07c8dba00000000000000000000000000000000000000000000000000000000815260040160405180910390fd5b612f05613de2565b816001600160a01b03166352d1902d6040518163ffffffff1660e01b8152600401602060405180830381865afa925050508015613ffa575060408051601f3d908101601f19168201909252613ff791810190615982565b60015b61403b576040517f4c9c8ce30000000000000000000000000000000000000000000000000000000081526001600160a01b0383166004820152602401610f11565b7f360894a13ba1a3210667c828492db98dca3e2076cc3735a920a3ca505d382bbc8114614097576040517faa1d49a400000000000000000000000000000000000000000000000000000000815260048101829052602401610f11565b613c738383614928565b306001600160a01b037f00000000000000000000000000000000000000000000000000000000000000001614611be6576040517fe07c8dba00000000000000000000000000000000000000000000000000000000815260040160405180910390fd5b7f9016d09d72d40fdae2fd8ceac6b6234c7706214fd39c1cd1e609a0528c19930080547fffffffffffffffffffffffff000000000000000000000000000000000000000081166001600160a01b03848116918217845560405192169182907f8be0079c531659141344cd1fd0a4f28419497f9722a3daafe3b4186f6b6457e0905f90a3505050565b335f9081527f2240ec17ed99e18fb5366c392e47eb71a27b90b5d0e7350fd633d34acc81e90360205260409020547f2240ec17ed99e18fb5366c392e47eb71a27b90b5d0e7350fd633d34acc81e9009015614212576040517f0ac0030400000000000000000000000000000000000000000000000000000000815260040160405180910390fd5b85546001600160a01b0316614253576040517f411321ed00000000000000000000000000000000000000000000000000000000815260040160405180910390fd5b600586015460ff16614291576040517f9e8f8bb100000000000000000000000000000000000000000000000000000000815260040160405180910390fd5b60038601548510156142cf576040517f2c5211c600000000000000000000000000000000000000000000000000000000815260040160405180910390fd5b600486015485111561430d576040517f2c5211c600000000000000000000000000000000000000000000000000000000815260040160405180910390fd5b6001600160a01b03841661434d576040517f9c8d2cd200000000000000000000000000000000000000000000000000000000815260040160405180910390fd5b5f87815260078201602090815260408083206001600160a01b0387168452909152808220815180830190925280548290829061438890615283565b80601f01602080910402602001604051908101604052809291908181526020018280546143b490615283565b80156143ff5780601f106143d6576101008083540402835291602001916143ff565b820191905f5260205f20905b8154815290600101906020018083116143e257829003601f168201915b5050505050815260200160018201805461441890615283565b80601f016020809104026020016040519081016040528092919081815260200182805461444490615283565b801561448f5780601f106144665761010080835404028352916020019161448f565b820191905f5260205f20905b81548152906001019060200180831161447257829003601f168201915b5050505050815250509050805f0151515f036144ed5760405162461bcd60e51b815260206004820152601e60248201527f5061796d656e74207665726966696572206e6f7420737570706f7274656400006044820152606401610f11565b5f88815260088301602090815260408083206001600160a01b0388168452825280832086845290915281205490036123df5760405162461bcd60e51b815260206004820152601660248201527f43757272656e6379206e6f7420737570706f72746564000000000000000000006044820152606401610f11565b5f807ff0c57e16840df040f15088dc2f81fe391c3923bec73e23a9662efc9c229c6a006110d0565b61459761497d565b612f05816149bb565b611be661497d565b6145b061306e565b7fcd5ed15c6e187e77e9aee88184c21f4f2182ab5827cb3b7e07fbedcd63f03300805460ff191660011781557f62e78cea01bee320cd4e420270b5ea74000d11b0c9f74754ebdbfc544b05a25833613eaa565b81515f908190815b8181101561464857848682815181106146265761462661549e565b602002602001015103614640579250600191506146529050565b60010161460b565b505f195f92509250505b9250929050565b5f5f60205f8451602086015f885af180614678576040513d5f823e3d81fd5b50505f513d9150811561468f57806001141561469c565b6001600160a01b0384163b155b156131eb576040517f5274afe70000000000000000000000000000000000000000000000000000000081526001600160a01b0385166004820152602401610f11565b5f8181527f2240ec17ed99e18fb5366c392e47eb71a27b90b5d0e7350fd633d34acc81e9066020908152604080832080548251818502810185019093528083527f2240ec17ed99e18fb5366c392e47eb71a27b90b5d0e7350fd633d34acc81e900949383018282801561477857602002820191905f5260205f20905b81546001600160a01b0316815260019091019060200180831161475a575b509394505f93505050505b81518110156131eb575f82828151811061479f5761479f61549e565b6020908102919091018101515f87815260078701835260408082206001600160a01b0384168352909352918220909250906147da8282614c4c565b6147e7600183015f614c4c565b50505f85815260098501602090815260408083206001600160a01b038516845282528083208054825181850281018501909352808352919290919083018282801561484f57602002820191905f5260205f20905b81548152602001906001019080831161483b575b509394505f93505050505b81518110156148c2575f87815260088701602090815260408083206001600160a01b03871684529091528120835190919084908490811061489d5761489d61549e565b602002602001015181526020019081526020015f205f9055808060010191505061485a565b505050600101614783565b7fcd5ed15c6e187e77e9aee88184c21f4f2182ab5827cb3b7e07fbedcd63f033005460ff16611be6576040517f8dfc202b00000000000000000000000000000000000000000000000000000000815260040160405180910390fd5b614931826149c3565b6040516001600160a01b038316907fbc7cd75a20ee27fd9adebab32041f755214dbc6bffa90cc0225b39da2e5c2d3b905f90a280511561497557613c738282614a6a565b611dc5614adc565b614985614b14565b611be6576040517fd7e6bcf800000000000000000000000000000000000000000000000000000000815260040160405180910390fd5b612eba61497d565b806001600160a01b03163b5f03614a11576040517f4c9c8ce30000000000000000000000000000000000000000000000000000000081526001600160a01b0382166004820152602401610f11565b7f360894a13ba1a3210667c828492db98dca3e2076cc3735a920a3ca505d382bbc80547fffffffffffffffffffffffff0000000000000000000000000000000000000000166001600160a01b0392909216919091179055565b60605f5f846001600160a01b031684604051614a869190615999565b5f60405180830381855af49150503d805f8114614abe576040519150601f19603f3d011682016040523d82523d5f602084013e614ac3565b606091505b5091509150614ad3858383614b32565b95945050505050565b3415611be6576040517fb398979f00000000000000000000000000000000000000000000000000000000815260040160405180910390fd5b5f614b1d614567565b5468010000000000000000900460ff16919050565b606082614b4757614b4282614ba7565b611b6b565b8151158015614b5e57506001600160a01b0384163b155b15614ba0576040517f9996b3150000000000000000000000000000000000000000000000000000000081526001600160a01b0385166004820152602401610f11565b5080611b6b565b805115614bb657805160208201fd5b6040517fd6bda27500000000000000000000000000000000000000000000000000000000815260040160405180910390fd5b828054828255905f5260205f20908101928215614c21579160200282015b82811115614c21578251825591602001919060010190614c06565b50614c2d929150614c7f565b5090565b5080545f8255905f5260205f2090810190612f059190614c7f565b508054614c5890615283565b5f825580601f10614c67575050565b601f0160209004905f5260205f2090810190612f0591905b5b80821115614c2d575f8155600101614c80565b6001600160a01b0381168114612f05575f5ffd5b5f5f60408385031215614cb8575f5ffd5b823591506020830135614cca81614c93565b809150509250929050565b5f5f5f60408486031215614ce7575f5ffd5b833567ffffffffffffffff811115614cfd575f5ffd5b8401601f81018613614d0d575f5ffd5b803567ffffffffffffffff811115614d23575f5ffd5b866020828401011115614d34575f5ffd5b6020918201979096509401359392505050565b5f5f60408385031215614d58575f5ffd5b50508035926020909101359150565b5f81518084528060208401602086015e5f602082860101526020601f19601f83011685010191505092915050565b602081525f611b6b6020830184614d67565b5f5f83601f840112614db7575f5ffd5b50813567ffffffffffffffff811115614dce575f5ffd5b6020830191508360208260051b8501011115614652575f5ffd5b5f5f5f5f5f5f5f5f5f898b0360e0811215614e01575f5ffd5b8a35614e0c81614c93565b995060208b0135985060407fffffffffffffffffffffffffffffffffffffffffffffffffffffffffffffffc082011215614e44575f5ffd5b5060408a01965060808a013567ffffffffffffffff811115614e64575f5ffd5b614e708c828d01614da7565b90975095505060a08a013567ffffffffffffffff811115614e8f575f5ffd5b614e9b8c828d01614da7565b90955093505060c08a013567ffffffffffffffff811115614eba575f5ffd5b614ec68c828d01614da7565b915080935050809150509295985092959850929598565b5f5f5f5f60808587031215614ef0575f5ffd5b843593506020850135614f0281614c93565b93969395505050506040820135916060013590565b5f60208284031215614f27575f5ffd5b5035919050565b5f5f5f60608486031215614f40575f5ffd5b833592506020840135614f5281614c93565b929592945050506040919091013590565b7f4e487b71000000000000000000000000000000000000000000000000000000005f52604160045260245ffd5b6040805190810167ffffffffffffffff81118282101715614fb357614fb3614f63565b60405290565b5f5f67ffffffffffffffff841115614fd357614fd3614f63565b50604051601f19601f85018116603f0116810181811067ffffffffffffffff8211171561500257615002614f63565b604052838152905080828401851015615019575f5ffd5b838360208301375f60208583010152509392505050565b5f5f60408385031215615041575f5ffd5b823561504c81614c93565b9150602083013567ffffffffffffffff811115615067575f5ffd5b8301601f81018513615077575f5ffd5b61508685823560208401614fb9565b9150509250929050565b5f602082840312156150a0575f5ffd5b8135611b6b81614c93565b5f5f5f5f5f60a086880312156150bf575f5ffd5b853594506020860135935060408601356150d881614c93565b925060608601356150e881614c93565b949793965091946080013592915050565b5f5f5f6060848603121561510b575f5ffd5b833561511681614c93565b925060208401359150604084013567ffffffffffffffff811115615138575f5ffd5b8401601f81018613615148575f5ffd5b61515786823560208401614fb9565b9150509250925092565b602081525f82516040602084015261517c6060840182614d67565b90506020840151601f19848303016040850152614ad38282614d67565b6001600160a01b038881168252871660208201526040810186905261010081016151d0606083018780518252602090810151910152565b93151560a082015260c081019290925260e090910152949350505050565b5f5f604083850312156151ff575f5ffd5b823561520a81614c93565b946020939093013593505050565b5f5f5f6060848603121561522a575f5ffd5b505081359360208301359350604090920135919050565b602080825282518282018190525f918401906040840190835b8181101561527857835183526020938401939092019160010161525a565b509095945050505050565b600181811c9082168061529757607f821691505b6020821081036152ce577f4e487b71000000000000000000000000000000000000000000000000000000005f52602260045260245ffd5b50919050565b602081525f825161010060208401526152f1610120840182614d67565b9050602084015161530d60408501826001600160a01b03169052565b5060408401516060840152606084015160808401526080840151601f198483030160a085015261533d8282614d67565b91505060a084015160c084015260c084015160e084015260e0840151601f1984830301610100850152614ad38282614d67565b8051801515811461537f575f5ffd5b919050565b5f5f60408385031215615395575f5ffd5b61539e83615370565b6020939093015192949293505050565b5f81518060208401855e5f93019283525090919050565b5f5f84546153d281615283565b6001821680156153e957600181146153fe5761542b565b60ff198316865281151582028601935061542b565b875f5260205f205f5b8381101561542357815488820152600190910190602001615407565b505081860193505b5050507f2d000000000000000000000000000000000000000000000000000000000000008152614ad360018201856153ae565b7f4e487b71000000000000000000000000000000000000000000000000000000005f52601160045260245ffd5b818103818111156110d0576110d061545e565b7f4e487b71000000000000000000000000000000000000000000000000000000005f52603260045260245ffd5b5f60408284031280156154dc575f5ffd5b506154e5614f90565b823581526020928301359281019290925250919050565b5f5f19820361550d5761550d61545e565b5060010190565b5f82357fffffffffffffffffffffffffffffffffffffffffffffffffffffffffffffffc1833603018112615546575f5ffd5b9190910192915050565b5f5f83357fffffffffffffffffffffffffffffffffffffffffffffffffffffffffffffffe1843603018112615583575f5ffd5b83018035915067ffffffffffffffff82111561559d575f5ffd5b602001915036819003821315614652575f5ffd5b601f821115613c7357805f5260205f20601f840160051c810160208510156155d65750805b601f840160051c820191505b818110156155f5575f81556001016155e2565b5050505050565b67ffffffffffffffff83111561561457615614614f63565b615628836156228354615283565b836155b1565b5f601f841160018114615659575f85156156425750838201355b5f19600387901b1c1916600186901b1783556155f5565b5f83815260208120601f198716915b828110156156885786850135825560209485019460019092019101615668565b50868210156156a4575f1960f88860031b161c19848701351681555b505060018560011b0183555050505050565b6156c08283615550565b67ffffffffffffffff8111156156d8576156d8614f63565b6156ec816156e68554615283565b856155b1565b5f601f82116001811461571d575f83156157065750838201355b5f19600385901b1c1916600184901b178555615774565b5f85815260208120601f198516915b8281101561574c578685013582556020948501946001909201910161572c565b5084821015615768575f1960f88660031b161c19848701351681555b505060018360011b0185555b505050506157856020830183615550565b6131eb8183600186016155fc565b818382375f9101908152919050565b5f5f83357fffffffffffffffffffffffffffffffffffffffffffffffffffffffffffffffe18436030181126157d5575f5ffd5b83018035915067ffffffffffffffff8211156157ef575f5ffd5b6020019150600681901b3603821315614652575f5ffd5b808201808211156110d0576110d061545e565b815167ffffffffffffffff81111561583357615833614f63565b615847816158418454615283565b846155b1565b6020601f821160018114615879575f83156158625750848201515b5f19600385901b1c1916600184901b1784556155f5565b5f84815260208120601f198516915b828110156158a85787850151825560209485019460019092019101615888565b50848210156158c557868401515f19600387901b60f8161c191681555b50505050600190811b01905550565b7f4e487b71000000000000000000000000000000000000000000000000000000005f52603160045260245ffd5b5f82615934577f4e487b71000000000000000000000000000000000000000000000000000000005f52601260045260245ffd5b500490565b80820281158282048414176110d0576110d061545e565b60ff81811683821601908111156110d0576110d061545e565b5f60208284031215615979575f5ffd5b611b6b82615370565b5f60208284031215615992575f5ffd5b5051919050565b5f611b6b82846153ae56fea2646970667358221220dbffd5c679c353c3bee40a507f38a04050ca79301de0bc4c4339901b5123833864736f6c634300081e0033",
  "devdoc": {
    "errors": {
      "AddressEmptyCode(address)": [
        {
          "details": "There's no code at `target` (it is not a contract)."
        }
      ],
      "ERC1967InvalidImplementation(address)": [
        {
          "details": "The `implementation` of the proxy is invalid."
        }
      ],
      "ERC1967NonPayable()": [
        {
          "details": "An upgrade function sees `msg.value > 0` that may be lost."
        }
      ],
      "EnforcedPause()": [
        {
          "details": "The operation failed because the contract is paused."
        }
      ],
      "ExpectedPause()": [
        {
          "details": "The operation failed because the contract is not paused."
        }
      ],
      "FailedCall()": [
        {
          "details": "A call to an address target failed. The target may have reverted."
        }
      ],
      "InvalidInitialization()": [
        {
          "details": "The contract is already initialized."
        }
      ],
      "NotInitializing()": [
        {
          "details": "The contract is not initializing."
        }
      ],
      "OwnableInvalidOwner(address)": [
        {
          "details": "The owner is not a valid owner account. (eg. `address(0)`)"
        }
      ],
      "OwnableUnauthorizedAccount(address)": [
        {
          "details": "The caller account is not authorized to perform an operation."
        }
      ],
      "SafeERC20FailedOperation(address)": [
        {
          "details": "An operation with an ERC-20 token failed."
        }
      ],
      "UUPSUnauthorizedCallContext()": [
        {
          "details": "The call is from an unauthorized context."
        }
      ],
      "UUPSUnsupportedProxiableUUID(bytes32)": [
        {
          "details": "The storage `slot` is unsupported as a UUID."
        }
      ]
    },
    "events": {
      "Initialized(uint64)": {
        "details": "Triggered when the contract has been initialized or reinitialized."
      },
      "Paused(address)": {
        "details": "Emitted when the pause is triggered by `account`."
      },
      "Unpaused(address)": {
        "details": "Emitted when the pause is lifted by `account`."
      },
      "Upgraded(address)": {
        "details": "Emitted when the implementation is upgraded."
      }
    },
    "kind": "dev",
    "methods": {
      "addWhitelistedPaymentVerifier(address)": {
        "params": {
          "_verifier": "The payment verifier address to add"
        }
      },
      "cancelIntent(uint256)": {
        "params": {
          "_intentId": "ID of intent being cancelled"
        }
      },
      "changeDepositor(uint256,address)": {
        "params": {
          "_depositId": "The ID of the deposit to transfer",
          "_newDepositor": "The address of the new depositor"
        }
      },
      "constructor": {
        "custom:oz-upgrades-unsafe-allow": "constructor"
      },
      "createDeposit(address,uint256,(uint256,uint256),address[],(string,bytes)[],(bytes32,uint256)[][])": {
        "details": "Update msg.sender's accountDeposits and deposit's depositor"
      },
      "increaseDeposit(uint256,uint256)": {
        "params": {
          "_amount": "The additional amount to add to the deposit",
          "_depositId": "The ID of the deposit to increase"
        }
      },
      "owner()": {
        "details": "Returns the address of the current owner."
      },
      "paused()": {
        "details": "Returns true if the contract is paused, and false otherwise."
      },
      "proxiableUUID()": {
        "details": "Implementation of the ERC-1822 {proxiableUUID} function. This returns the storage slot used by the implementation. It is used to validate the implementation's compatibility when performing an upgrade. IMPORTANT: A proxy pointing at a proxiable contract should not be considered proxiable itself, because this risks bricking a proxy that upgrades to it, by delegating to itself until out of gas. Thus it is critical that this function revert if invoked through a proxy. This is guaranteed by the `notDelegated` modifier."
      },
      "removeWhitelistedPaymentVerifier(address)": {
        "params": {
          "_verifier": "The payment verifier address to remove"
        }
      },
      "renounceOwnership()": {
        "details": "Leaves the contract without owner. It will not be possible to call `onlyOwner` functions. Can only be called by the current owner. NOTE: Renouncing ownership will leave the contract without an owner, thereby disabling any functionality that is only available to the owner."
      },
      "setIntentExpirationPeriod(uint256)": {
        "params": {
          "_intentExpirationPeriod": "New intent expiration period"
        }
      },
      "setMaxIntentsPerDeposit(uint256)": {
        "params": {
          "_maxIntentsPerDeposit": "The new maximum number of intents allowed per deposit"
        }
      },
      "transferOwnership(address)": {
        "details": "Transfers ownership of the contract to a new account (`newOwner`). Can only be called by the current owner."
      },
      "updateDepositIntentAmountRange(uint256,uint256,uint256)": {
        "params": {
          "_depositId": "The ID of the deposit to update",
          "_max": "The new maximum intent amount allowed",
          "_min": "The new minimum intent amount allowed"
        }
      },
      "upgradeToAndCall(address,bytes)": {
        "custom:oz-upgrades-unsafe-allow-reachable": "delegatecall",
        "details": "Upgrade the implementation of the proxy to `newImplementation`, and subsequently execute the function call encoded in `data`. Calls {_authorizeUpgrade}. Emits an {Upgraded} event."
      },
      "withdrawDeposit(uint256)": {
        "params": {
          "_depositId": "DepositId the depositor is attempting to withdraw."
        }
      }
    },
    "version": 1
  },
  "userdoc": {
    "kind": "user",
    "methods": {
      "addWhitelistedPaymentVerifier(address)": {
        "notice": "GOVERNANCE ONLY: Adds a payment verifier to the whitelist."
      },
      "cancelIntent(uint256)": {
        "notice": "Only callable by the originator of the intent. Allowed even when paused."
      },
      "changeDepositor(uint256,address)": {
        "notice": "Allows the current depositor to transfer ownership of the deposit to a new address. Only the current depositor can call this function."
      },
      "increaseDeposit(uint256,uint256)": {
        "notice": "Allows anyone to add more funds to an existing deposit. The depositor must approve the escrow contract to transfer the additional amount."
      },
      "removeWhitelistedPaymentVerifier(address)": {
        "notice": "GOVERNANCE ONLY: Removes a payment verifier from the whitelist."
      },
      "setIntentExpirationPeriod(uint256)": {
        "notice": "GOVERNANCE ONLY: Updates the intent expiration period, after this period elapses an intent can be pruned to prevent locking up a depositor's funds."
      },
      "setMaxIntentsPerDeposit(uint256)": {
        "notice": "GOVERNANCE ONLY: Updates the maximum number of intents allowed per deposit."
      },
      "updateDepositConversionRate(uint256,address,bytes32,uint256)": {
        "notice": "Only callable by the depositor for a deposit. Allows depositor to update the conversion rate for a currency for a payment verifier. Since intent's store the conversion rate at the time of intent, changing the conversion rate will not affect any intents that have already been signaled."
      },
      "updateDepositIntentAmountRange(uint256,uint256,uint256)": {
        "notice": "Allows the depositor to update the intent amount range for their deposit. This function can only be called by the original depositor of the deposit."
      },
      "withdrawDeposit(uint256)": {
        "notice": "Only callable by the depositor for a deposit. Allows depositor to withdraw the remaining funds in the deposit. Deposit is marked as to not accept new intents and the funds locked due to intents can be withdrawn once they expire by calling this function again. Deposit will be deleted as long as there are no more outstanding intents."
      }
    },
    "version": 1
  },
  "storageLayout": {
    "storage": [],
    "types": null
  }
}