{
  "address": "0x72f91969485c7eFa53990FB0763fFA57Ba73F3Be",
  "abi": [
    {
      "inputs": [
        {
          "internalType": "address",
          "name": "_owner",
          "type": "address"
        }
      ],
      "stateMutability": "nonpayable",
      "type": "constructor"
    },
    {
      "inputs": [
        {
          "internalType": "address",
          "name": "owner",
          "type": "address"
        }
      ],
      "name": "OwnableInvalidOwner",
      "type": "error"
    },
    {
      "inputs": [
        {
          "internalType": "address",
          "name": "account",
          "type": "address"
        }
      ],
      "name": "OwnableUnauthorizedAccount",
      "type": "error"
    },
    {
      "anonymous": false,
      "inputs": [
        {
          "indexed": false,
          "internalType": "bytes32",
          "name": "nullifier",
          "type": "bytes32"
        },
        {
          "indexed": true,
          "internalType": "address",
          "name": "writer",
          "type": "address"
        }
      ],
      "name": "NullifierAdded",
      "type": "event"
    },
    {
      "anonymous": false,
      "inputs": [
        {
          "indexed": true,
          "internalType": "address",
          "name": "previousOwner",
          "type": "address"
        },
        {
          "indexed": true,
          "internalType": "address",
          "name": "newOwner",
          "type": "address"
        }
      ],
      "name": "OwnershipTransferred",
      "type": "event"
    },
    {
      "anonymous": false,
      "inputs": [
        {
          "indexed": false,
          "internalType": "address",
          "name": "writer",
          "type": "address"
        }
      ],
      "name": "WriterAdded",
      "type": "event"
    },
    {
      "anonymous": false,
      "inputs": [
        {
          "indexed": false,
          "internalType": "address",
          "name": "writer",
          "type": "address"
        }
      ],
      "name": "WriterRemoved",
      "type": "event"
    },
    {
      "inputs": [
        {
          "internalType": "bytes32",
          "name": "_nullifier",
          "type": "bytes32"
        }
      ],
      "name": "addNullifier",
      "outputs": [],
      "stateMutability": "nonpayable",
      "type": "function"
    },
    {
      "inputs": [
        {
          "internalType": "address",
          "name": "_newWriter",
          "type": "address"
        }
      ],
      "name": "addWritePermission",
      "outputs": [],
      "stateMutability": "nonpayable",
      "type": "function"
    },
    {
      "inputs": [],
      "name": "getWriters",
      "outputs": [
        {
          "internalType": "address[]",
          "name": "",
          "type": "address[]"
        }
      ],
      "stateMutability": "view",
      "type": "function"
    },
    {
      "inputs": [
        {
          "internalType": "bytes32",
          "name": "",
          "type": "bytes32"
        }
      ],
      "name": "isNullified",
      "outputs": [
        {
          "internalType": "bool",
          "name": "",
          "type": "bool"
        }
      ],
      "stateMutability": "view",
      "type": "function"
    },
    {
      "inputs": [
        {
          "internalType": "address",
          "name": "",
          "type": "address"
        }
      ],
      "name": "isWriter",
      "outputs": [
        {
          "internalType": "bool",
          "name": "",
          "type": "bool"
        }
      ],
      "stateMutability": "view",
      "type": "function"
    },
    {
      "inputs": [],
      "name": "owner",
      "outputs": [
        {
          "internalType": "address",
          "name": "",
          "type": "address"
        }
      ],
      "stateMutability": "view",
      "type": "function"
    },
    {
      "inputs": [
        {
          "internalType": "address",
          "name": "_removedWriter",
          "type": "address"
        }
      ],
      "name": "removeWritePermission",
      "outputs": [],
      "stateMutability": "nonpayable",
      "type": "function"
    },
    {
      "inputs": [],
      "name": "renounceOwnership",
      "outputs": [],
      "stateMutability": "nonpayable",
      "type": "function"
    },
    {
      "inputs": [
        {
          "internalType": "address",
          "name": "newOwner",
          "type": "address"
        }
      ],
      "name": "transferOwnership",
      "outputs": [],
      "stateMutability": "nonpayable",
      "type": "function"
    },
    {
      "inputs": [
        {
          "internalType": "uint256",
          "name": "",
          "type": "uint256"
        }
      ],
      "name": "writers",
      "outputs": [
        {
          "internalType": "address",
          "name": "",
          "type": "address"
        }
      ],
      "stateMutability": "view",
      "type": "function"
    }
  ],
  "transactionHash": "0xfc94d6a282eada9a4b97c930b8ca867159c85d323f8e845f709f665eae97e419",
  "args": [
    "0x2042c7E7A36CAB186189946ad751EAAe6769E661"
  ],
  "numDeployments": 1,
  "solcInputHash": "6b17787d7bb9ddeda626e4fb7925919f",
  "bytecode": "0x6080604052348015600e575f5ffd5b50604051610cde380380610cde833981016040819052602b9160b4565b806001600160a01b038116605857604051631e4fbdf760e01b81525f600482015260240160405180910390fd5b605f816065565b505060df565b5f80546001600160a01b038381166001600160a01b0319831681178455604051919092169283917f8be0079c531659141344cd1fd0a4f28419497f9722a3daafe3b4186f6b6457e09190a35050565b5f6020828403121560c3575f5ffd5b81516001600160a01b038116811460d8575f5ffd5b9392505050565b610bf2806100ec5f395ff3fe608060405234801561000f575f5ffd5b50600436106100b9575f3560e01c8063715018a611610072578063cb01316c11610058578063cb01316c1461019b578063d6da0326146101b0578063f2fde38b146101c3575f5ffd5b8063715018a6146101765780638da5cb5b1461017e575f5ffd5b80632b29ba23116100a25780632b29ba23146101095780635bd4df321461012b57806366a526721461013e575f5ffd5b8063169394bb146100bd578063286f9201146100f4575b5f5ffd5b6100df6100cb366004610a7b565b60016020525f908152604090205460ff1681565b60405190151581526020015b60405180910390f35b610107610102366004610a92565b6101d6565b005b6100df610117366004610a92565b60026020525f908152604090205460ff1681565b610107610139366004610a7b565b610313565b61015161014c366004610a7b565b610499565b60405173ffffffffffffffffffffffffffffffffffffffff90911681526020016100eb565b6101076104ce565b5f5473ffffffffffffffffffffffffffffffffffffffff16610151565b6101a36104e1565b6040516100eb9190610acc565b6101076101be366004610a92565b61054e565b6101076101d1366004610a92565b6106bd565b6101de610720565b73ffffffffffffffffffffffffffffffffffffffff81165f9081526002602052604090205460ff16610271576040517f08c379a000000000000000000000000000000000000000000000000000000000815260206004820152601760248201527f41646472657373206973206e6f7420612077726974657200000000000000000060448201526064015b60405180910390fd5b73ffffffffffffffffffffffffffffffffffffffff81165f90815260026020526040902080547fffffffffffffffffffffffffffffffffffffffffffffffffffffffffffffff001690556102c6600382610772565b60405173ffffffffffffffffffffffffffffffffffffffff821681527f86e5bbceda94081c32220d685f37cc4e3ea7bb0be2dfbf0cb703579505a5390e906020015b60405180910390a150565b335f9081526002602052604090205460ff166103b1576040517f08c379a000000000000000000000000000000000000000000000000000000000815260206004820152602e60248201527f4f6e6c79206164647265737365732077697468207772697465207065726d697360448201527f73696f6e732063616e2063616c6c0000000000000000000000000000000000006064820152608401610268565b5f8181526001602052604090205460ff1615610429576040517f08c379a000000000000000000000000000000000000000000000000000000000815260206004820152601860248201527f4e756c6c696669657220616c72656164792065786973747300000000000000006044820152606401610268565b5f8181526001602081815260409283902080547fffffffffffffffffffffffffffffffffffffffffffffffffffffffffffffff0016909217909155905182815233917f57d64412939564693aa1e17d56c93933396b3a990f47c84dfc16a201fc2f3f83910160405180910390a250565b600381815481106104a8575f80fd5b5f9182526020909120015473ffffffffffffffffffffffffffffffffffffffff16905081565b6104d6610720565b6104df5f610966565b565b6060600380548060200260200160405190810160405280929190818152602001828054801561054457602002820191905f5260205f20905b815473ffffffffffffffffffffffffffffffffffffffff168152600190910190602001808311610519575b5050505050905090565b610556610720565b73ffffffffffffffffffffffffffffffffffffffff81165f9081526002602052604090205460ff16156105e5576040517f08c379a000000000000000000000000000000000000000000000000000000000815260206004820152601b60248201527f4164647265737320697320616c726561647920612077726974657200000000006044820152606401610268565b73ffffffffffffffffffffffffffffffffffffffff81165f81815260026020908152604080832080547fffffffffffffffffffffffffffffffffffffffffffffffffffffffffffffff001660019081179091556003805491820181559093527fc2575a0e9e593c00f959f8c92f12db2869c3395a3b0502d05e2516446f71f85b90920180547fffffffffffffffffffffffff0000000000000000000000000000000000000000168417905590519182527f6ff3aa2ea7b53070f6d9d07a445d338d89e8edef44250ffa8be19f53910d4a2e9101610308565b6106c5610720565b73ffffffffffffffffffffffffffffffffffffffff8116610714576040517f1e4fbdf70000000000000000000000000000000000000000000000000000000081525f6004820152602401610268565b61071d81610966565b50565b5f5473ffffffffffffffffffffffffffffffffffffffff1633146104df576040517f118cdaa7000000000000000000000000000000000000000000000000000000008152336004820152602401610268565b5f5f6107e2848054806020026020016040519081016040528092919081815260200182805480156107d757602002820191905f5260205f20905b815473ffffffffffffffffffffffffffffffffffffffff1681526001909101906020018083116107ac575b5050505050846109da565b915091508061084d576040517f08c379a000000000000000000000000000000000000000000000000000000000815260206004820152601560248201527f41646472657373206e6f7420696e2061727261792e00000000000000000000006044820152606401610268565b83545f9061085d90600190610b24565b90508083146108f85784818154811061087857610878610b62565b905f5260205f20015f9054906101000a900473ffffffffffffffffffffffffffffffffffffffff168584815481106108b2576108b2610b62565b905f5260205f20015f6101000a81548173ffffffffffffffffffffffffffffffffffffffff021916908373ffffffffffffffffffffffffffffffffffffffff1602179055505b8480548061090857610908610b8f565b5f8281526020902081017fffffffffffffffffffffffffffffffffffffffffffffffffffffffffffffffff90810180547fffffffffffffffffffffffff00000000000000000000000000000000000000001690550190555050505050565b5f805473ffffffffffffffffffffffffffffffffffffffff8381167fffffffffffffffffffffffff0000000000000000000000000000000000000000831681178455604051919092169283917f8be0079c531659141344cd1fd0a4f28419497f9722a3daafe3b4186f6b6457e09190a35050565b81515f908190815b81811015610a4b578473ffffffffffffffffffffffffffffffffffffffff16868281518110610a1357610a13610b62565b602002602001015173ffffffffffffffffffffffffffffffffffffffff1603610a4357925060019150610a749050565b6001016109e2565b507fffffffffffffffffffffffffffffffffffffffffffffffffffffffffffffffff5f92509250505b9250929050565b5f60208284031215610a8b575f5ffd5b5035919050565b5f60208284031215610aa2575f5ffd5b813573ffffffffffffffffffffffffffffffffffffffff81168114610ac5575f5ffd5b9392505050565b602080825282518282018190525f918401906040840190835b81811015610b1957835173ffffffffffffffffffffffffffffffffffffffff16835260209384019390920191600101610ae5565b509095945050505050565b81810381811115610b5c577f4e487b71000000000000000000000000000000000000000000000000000000005f52601160045260245ffd5b92915050565b7f4e487b71000000000000000000000000000000000000000000000000000000005f52603260045260245ffd5b7f4e487b71000000000000000000000000000000000000000000000000000000005f52603160045260245ffdfea2646970667358221220e2e2dc431acb34d8812f6f5f83e59a3198a6f3477e2e60c3a8ffffd70d23cbb664736f6c634300081e0033",
  "devdoc": {
    "errors": {
      "OwnableInvalidOwner(address)": [
        {
          "details": "The owner is not a valid owner account. (eg. `address(0)`)"
        }
      ],
      "OwnableUnauthorizedAccount(address)": [
        {
          "details": "The caller account is not authorized to perform an operation."
        }
      ]
    },
    "kind": "dev",
    "methods": {
      "addNullifier(bytes32)": {
        "params": {
          "_nullifier": "The nullifier to store"
        }
      },
      "addWritePermission(address)": {
        "params": {
          "_newWriter": "The nullifier to store"
        }
      },
      "owner()": {
        "details": "Returns the address of the current owner."
      },
      "removeWritePermission(address)": {
        "params": {
          "_removedWriter": "The nullifier to store"
        }
      },
      "renounceOwnership()": {
        "details": "Leaves the contract without owner. It will not be possible to call `onlyOwner` functions. Can only be called by the current owner. NOTE: Renouncing ownership will leave the contract without an owner, thereby disabling any functionality that is only available to the owner."
      },
      "transferOwnership(address)": {
        "details": "Transfers ownership of the contract to a new account (`newOwner`). Can only be called by the current owner."
      }
    },
    "version": 1
  },
  "userdoc": {
    "kind": "user",
    "methods": {
      "addNullifier(bytes32)": {
        "notice": "ONLY WRITER: Only addresses with permission to write to this contract can call. Stores a nullifier for an email."
      },
      "addWritePermission(address)": {
        "notice": "ONLY OWNER: Add address that has write permissions to the registry. Writer must not have been previously added."
      },
      "removeWritePermission(address)": {
        "notice": "ONLY OWNER: Remove address that has write permissions to the registry. Writer must have been previously added."
      }
    },
    "version": 1
  },
  "storageLayout": {
    "storage": [
      {
        "astId": 1239,
        "contract": "src/verifiers/nullifierRegistries/NullifierRegistry.sol:NullifierRegistry",
        "label": "_owner",
        "offset": 0,
        "slot": "0",
        "type": "t_address"
      },
      {
        "astId": 14476,
        "contract": "src/verifiers/nullifierRegistries/NullifierRegistry.sol:NullifierRegistry",
        "label": "isNullified",
        "offset": 0,
        "slot": "1",
        "type": "t_mapping(t_bytes32,t_bool)"
      },
      {
        "astId": 14480,
        "contract": "src/verifiers/nullifierRegistries/NullifierRegistry.sol:NullifierRegistry",
        "label": "isWriter",
        "offset": 0,
        "slot": "2",
        "type": "t_mapping(t_address,t_bool)"
      },
      {
        "astId": 14483,
        "contract": "src/verifiers/nullifierRegistries/NullifierRegistry.sol:NullifierRegistry",
        "label": "writers",
        "offset": 0,
        "slot": "3",
        "type": "t_array(t_address)dyn_storage"
      }
    ],
    "types": {
      "t_address": {
        "encoding": "inplace",
        "label": "address",
        "numberOfBytes": "20"
      },
      "t_array(t_address)dyn_storage": {
        "base": "t_address",
        "encoding": "dynamic_array",
        "label": "address[]",
        "numberOfBytes": "32"
      },
      "t_bool": {
        "encoding": "inplace",
        "label": "bool",
        "numberOfBytes": "1"
      },
      "t_bytes32": {
        "encoding": "inplace",
        "label": "bytes32",
        "numberOfBytes": "32"
      },
      "t_mapping(t_address,t_bool)": {
        "encoding": "mapping",
        "key": "t_address",
        "label": "mapping(address => bool)",
        "numberOfBytes": "32",
        "value": "t_bool"
      },
      "t_mapping(t_bytes32,t_bool)": {
        "encoding": "mapping",
        "key": "t_bytes32",
        "label": "mapping(bytes32 => bool)",
        "numberOfBytes": "32",
        "value": "t_bool"
      }
    }
  }
}