{
  "address": "0x945926B0945F6028D2A4190760341FCD51250f42",
  "abi": [
    {
      "inputs": [
        {
          "internalType": "address",
          "name": "_owner",
          "type": "address"
        },
        {
          "internalType": "address",
          "name": "_escrow",
          "type": "address"
        },
        {
          "internalType": "contract INullifierRegistry",
          "name": "_nullifierRegistry",
          "type": "address"
        },
        {
          "internalType": "uint256",
          "name": "_timestampBuffer",
          "type": "uint256"
        },
        {
          "internalType": "bytes32[]",
          "name": "_currencies",
          "type": "bytes32[]"
        },
        {
          "internalType": "string[]",
          "name": "_providerHashes",
          "type": "string[]"
        }
      ],
      "stateMutability": "nonpayable",
      "type": "constructor"
    },
    {
      "inputs": [],
      "name": "ECDSAInvalidSignature",
      "type": "error"
    },
    {
      "inputs": [
        {
          "internalType": "uint256",
          "name": "length",
          "type": "uint256"
        }
      ],
      "name": "ECDSAInvalidSignatureLength",
      "type": "error"
    },
    {
      "inputs": [
        {
          "internalType": "bytes32",
          "name": "s",
          "type": "bytes32"
        }
      ],
      "name": "ECDSAInvalidSignatureS",
      "type": "error"
    },
    {
      "inputs": [
        {
          "internalType": "address",
          "name": "owner",
          "type": "address"
        }
      ],
      "name": "OwnableInvalidOwner",
      "type": "error"
    },
    {
      "inputs": [
        {
          "internalType": "address",
          "name": "account",
          "type": "address"
        }
      ],
      "name": "OwnableUnauthorizedAccount",
      "type": "error"
    },
    {
      "anonymous": false,
      "inputs": [
        {
          "indexed": true,
          "internalType": "bytes32",
          "name": "currencyCode",
          "type": "bytes32"
        }
      ],
      "name": "CurrencyAdded",
      "type": "event"
    },
    {
      "anonymous": false,
      "inputs": [
        {
          "indexed": true,
          "internalType": "bytes32",
          "name": "currencyCode",
          "type": "bytes32"
        }
      ],
      "name": "CurrencyRemoved",
      "type": "event"
    },
    {
      "anonymous": false,
      "inputs": [
        {
          "indexed": true,
          "internalType": "address",
          "name": "escrow",
          "type": "address"
        }
      ],
      "name": "EscrowAdded",
      "type": "event"
    },
    {
      "anonymous": false,
      "inputs": [
        {
          "indexed": true,
          "internalType": "address",
          "name": "escrow",
          "type": "address"
        }
      ],
      "name": "EscrowRemoved",
      "type": "event"
    },
    {
      "anonymous": false,
      "inputs": [
        {
          "indexed": true,
          "internalType": "address",
          "name": "previousOwner",
          "type": "address"
        },
        {
          "indexed": true,
          "internalType": "address",
          "name": "newOwner",
          "type": "address"
        }
      ],
      "name": "OwnershipTransferred",
      "type": "event"
    },
    {
      "anonymous": false,
      "inputs": [
        {
          "indexed": false,
          "internalType": "string",
          "name": "providerHash",
          "type": "string"
        }
      ],
      "name": "ProviderHashAdded",
      "type": "event"
    },
    {
      "anonymous": false,
      "inputs": [
        {
          "indexed": false,
          "internalType": "string",
          "name": "providerHash",
          "type": "string"
        }
      ],
      "name": "ProviderHashRemoved",
      "type": "event"
    },
    {
      "anonymous": false,
      "inputs": [
        {
          "indexed": false,
          "internalType": "uint256",
          "name": "timestampBuffer",
          "type": "uint256"
        }
      ],
      "name": "TimestampBufferSet",
      "type": "event"
    },
    {
      "inputs": [
        {
          "internalType": "bytes32",
          "name": "_currencyCode",
          "type": "bytes32"
        }
      ],
      "name": "addCurrency",
      "outputs": [],
      "stateMutability": "nonpayable",
      "type": "function"
    },
    {
      "inputs": [
        {
          "internalType": "address",
          "name": "_escrow",
          "type": "address"
        }
      ],
      "name": "addEscrow",
      "outputs": [],
      "stateMutability": "nonpayable",
      "type": "function"
    },
    {
      "inputs": [
        {
          "internalType": "string",
          "name": "_newProviderHash",
          "type": "string"
        }
      ],
      "name": "addProviderHash",
      "outputs": [],
      "stateMutability": "nonpayable",
      "type": "function"
    },
    {
      "inputs": [
        {
          "internalType": "uint256",
          "name": "",
          "type": "uint256"
        }
      ],
      "name": "currencies",
      "outputs": [
        {
          "internalType": "bytes32",
          "name": "",
          "type": "bytes32"
        }
      ],
      "stateMutability": "view",
      "type": "function"
    },
    {
      "inputs": [],
      "name": "escrow",
      "outputs": [
        {
          "internalType": "address",
          "name": "",
          "type": "address"
        }
      ],
      "stateMutability": "view",
      "type": "function"
    },
    {
      "inputs": [
        {
          "internalType": "uint256",
          "name": "",
          "type": "uint256"
        }
      ],
      "name": "escrows",
      "outputs": [
        {
          "internalType": "address",
          "name": "",
          "type": "address"
        }
      ],
      "stateMutability": "view",
      "type": "function"
    },
    {
      "inputs": [],
      "name": "getCurrencies",
      "outputs": [
        {
          "internalType": "bytes32[]",
          "name": "",
          "type": "bytes32[]"
        }
      ],
      "stateMutability": "view",
      "type": "function"
    },
    {
      "inputs": [],
      "name": "getEscrows",
      "outputs": [
        {
          "internalType": "address[]",
          "name": "",
          "type": "address[]"
        }
      ],
      "stateMutability": "view",
      "type": "function"
    },
    {
      "inputs": [],
      "name": "getProviderHashes",
      "outputs": [
        {
          "internalType": "string[]",
          "name": "",
          "type": "string[]"
        }
      ],
      "stateMutability": "view",
      "type": "function"
    },
    {
      "inputs": [
        {
          "internalType": "bytes32",
          "name": "",
          "type": "bytes32"
        }
      ],
      "name": "isCurrency",
      "outputs": [
        {
          "internalType": "bool",
          "name": "",
          "type": "bool"
        }
      ],
      "stateMutability": "view",
      "type": "function"
    },
    {
      "inputs": [
        {
          "internalType": "address",
          "name": "",
          "type": "address"
        }
      ],
      "name": "isEscrow",
      "outputs": [
        {
          "internalType": "bool",
          "name": "",
          "type": "bool"
        }
      ],
      "stateMutability": "view",
      "type": "function"
    },
    {
      "inputs": [
        {
          "internalType": "string",
          "name": "",
          "type": "string"
        }
      ],
      "name": "isProviderHash",
      "outputs": [
        {
          "internalType": "bool",
          "name": "",
          "type": "bool"
        }
      ],
      "stateMutability": "view",
      "type": "function"
    },
    {
      "inputs": [],
      "name": "nullifierRegistry",
      "outputs": [
        {
          "internalType": "contract INullifierRegistry",
          "name": "",
          "type": "address"
        }
      ],
      "stateMutability": "view",
      "type": "function"
    },
    {
      "inputs": [],
      "name": "owner",
      "outputs": [
        {
          "internalType": "address",
          "name": "",
          "type": "address"
        }
      ],
      "stateMutability": "view",
      "type": "function"
    },
    {
      "inputs": [
        {
          "internalType": "uint256",
          "name": "",
          "type": "uint256"
        }
      ],
      "name": "providerHashes",
      "outputs": [
        {
          "internalType": "string",
          "name": "",
          "type": "string"
        }
      ],
      "stateMutability": "view",
      "type": "function"
    },
    {
      "inputs": [
        {
          "internalType": "bytes32",
          "name": "_currencyCode",
          "type": "bytes32"
        }
      ],
      "name": "removeCurrency",
      "outputs": [],
      "stateMutability": "nonpayable",
      "type": "function"
    },
    {
      "inputs": [
        {
          "internalType": "address",
          "name": "_escrow",
          "type": "address"
        }
      ],
      "name": "removeEscrow",
      "outputs": [],
      "stateMutability": "nonpayable",
      "type": "function"
    },
    {
      "inputs": [
        {
          "internalType": "string",
          "name": "_removeProviderHash",
          "type": "string"
        }
      ],
      "name": "removeProviderHash",
      "outputs": [],
      "stateMutability": "nonpayable",
      "type": "function"
    },
    {
      "inputs": [],
      "name": "renounceOwnership",
      "outputs": [],
      "stateMutability": "nonpayable",
      "type": "function"
    },
    {
      "inputs": [
        {
          "internalType": "uint256",
          "name": "_timestampBuffer",
          "type": "uint256"
        }
      ],
      "name": "setTimestampBuffer",
      "outputs": [],
      "stateMutability": "nonpayable",
      "type": "function"
    },
    {
      "inputs": [],
      "name": "timestampBuffer",
      "outputs": [
        {
          "internalType": "uint256",
          "name": "",
          "type": "uint256"
        }
      ],
      "stateMutability": "view",
      "type": "function"
    },
    {
      "inputs": [
        {
          "internalType": "address",
          "name": "newOwner",
          "type": "address"
        }
      ],
      "name": "transferOwnership",
      "outputs": [],
      "stateMutability": "nonpayable",
      "type": "function"
    },
    {
      "inputs": [
        {
          "components": [
            {
              "internalType": "bytes",
              "name": "paymentProof",
              "type": "bytes"
            },
            {
              "internalType": "address",
              "name": "depositToken",
              "type": "address"
            },
            {
              "internalType": "uint256",
              "name": "intentAmount",
              "type": "uint256"
            },
            {
              "internalType": "uint256",
              "name": "intentTimestamp",
              "type": "uint256"
            },
            {
              "internalType": "string",
              "name": "payeeDetails",
              "type": "string"
            },
            {
              "internalType": "bytes32",
              "name": "fiatCurrency",
              "type": "bytes32"
            },
            {
              "internalType": "uint256",
              "name": "conversionRate",
              "type": "uint256"
            },
            {
              "internalType": "bytes",
              "name": "data",
              "type": "bytes"
            }
          ],
          "internalType": "struct IPaymentVerifierV2.VerifyPaymentData",
          "name": "_verifyPaymentData",
          "type": "tuple"
        }
      ],
      "name": "verifyPayment",
      "outputs": [
        {
          "internalType": "bool",
          "name": "",
          "type": "bool"
        },
        {
          "internalType": "bytes32",
          "name": "",
          "type": "bytes32"
        }
      ],
      "stateMutability": "nonpayable",
      "type": "function"
    },
    {
      "inputs": [
        {
          "components": [
            {
              "components": [
                {
                  "internalType": "string",
                  "name": "provider",
                  "type": "string"
                },
                {
                  "internalType": "string",
                  "name": "parameters",
                  "type": "string"
                },
                {
                  "internalType": "string",
                  "name": "context",
                  "type": "string"
                }
              ],
              "internalType": "struct Claims.ClaimInfo",
              "name": "claimInfo",
              "type": "tuple"
            },
            {
              "components": [
                {
                  "components": [
                    {
                      "internalType": "bytes32",
                      "name": "identifier",
                      "type": "bytes32"
                    },
                    {
                      "internalType": "address",
                      "name": "owner",
                      "type": "address"
                    },
                    {
                      "internalType": "uint32",
                      "name": "timestampS",
                      "type": "uint32"
                    },
                    {
                      "internalType": "uint32",
                      "name": "epoch",
                      "type": "uint32"
                    }
                  ],
                  "internalType": "struct Claims.CompleteClaimData",
                  "name": "claim",
                  "type": "tuple"
                },
                {
                  "internalType": "bytes[]",
                  "name": "signatures",
                  "type": "bytes[]"
                }
              ],
              "internalType": "struct Claims.SignedClaim",
              "name": "signedClaim",
              "type": "tuple"
            },
            {
              "internalType": "bool",
              "name": "isAppclipProof",
              "type": "bool"
            }
          ],
          "internalType": "struct IReclaimVerifier.ReclaimProof",
          "name": "proof",
          "type": "tuple"
        },
        {
          "internalType": "address[]",
          "name": "_witnesses",
          "type": "address[]"
        },
        {
          "internalType": "uint256",
          "name": "_requiredThreshold",
          "type": "uint256"
        }
      ],
      "name": "verifyProofSignatures",
      "outputs": [
        {
          "internalType": "bool",
          "name": "",
          "type": "bool"
        }
      ],
      "stateMutability": "pure",
      "type": "function"
    }
  ],
  "transactionHash": "0xd7d809a53701b1010ea4ef6183ad4a3fd83e91d5fa153bd8773bd7d8a1748512",
  "args": [
    "0x2042c7E7A36CAB186189946ad751EAAe6769E661",
    "0xB2bACB93a5046Fa2A9b5709CB06d41dAb0De6D37",
    "0x72f91969485c7eFa53990FB0763fFA57Ba73F3Be",
    1800,
    [
      "0xc7914cfda800b414621b0ce0d8fed732cabbb831d6afcd8b2a73fb1ca78e443c"
    ],
    [
      "0xffb501528259e6d684e1c2153fbbacab453fe9c97c336dc4f8f48d70a0e2a13d"
    ]
  ],
  "numDeployments": 1,
  "solcInputHash": "6b17787d7bb9ddeda626e4fb7925919f",
  "bytecode": "0x608060405234801561000f575f5ffd5b5060405161588a38038061588a83398101604081905261002e91610500565b8585858585858585858585846001600160a01b03811661006857604051631e4fbdf760e01b81525f60048201526024015b60405180910390fd5b61007181610349565b50600180546001600160a01b038087166001600160a01b031992831617909255600280549286169290911691909117905560038290555f5b815181101561012d5760048282815181106100c6576100c6610600565b6020908102919091018101518254600181810185555f9485529284200155835190916005918590859081106100fd576100fd610600565b60209081029190910181015182528101919091526040015f20805460ff19169115159190911790556001016100a9565b505f9450505050505b81518110156102ac57600682828151811061015357610153610600565b60200260200101516040516101689190610614565b9081526040519081900360200190205460ff16156101c85760405162461bcd60e51b815260206004820152601b60248201527f50726f7669646572206861736820616c72656164792061646465640000000000604482015260640161005f565b600160068383815181106101de576101de610600565b60200260200101516040516101f39190610614565b90815260200160405180910390205f6101000a81548160ff021916908315150217905550600782828151811061022b5761022b610600565b60209081029190910181015182546001810184555f93845291909220019061025390826106ae565b507fc9e1c78701d1853eeb1eb35ad3449e4b336281f672d5837243d21239dc6f409682828151811061028757610287610600565b602002602001015160405161029c9190610768565b60405180910390a1600101610136565b5050506001600160a01b0389165f81815260086020526040808220805460ff1916600190811790915560098054918201815583527f6e1540171b6c0c960b71a7020d9f60077f6af931a8bbf590da0223dacf75c7af0180546001600160a01b03191684179055519195507f187d4569055ab013405cf5670ad398a69b2970a64bfbb2b19a76e72120d471e5945092509050a250505050505061079d565b5f80546001600160a01b038381166001600160a01b0319831681178455604051919092169283917f8be0079c531659141344cd1fd0a4f28419497f9722a3daafe3b4186f6b6457e09190a35050565b6001600160a01b03811681146103ac575f5ffd5b50565b634e487b7160e01b5f52604160045260245ffd5b604051601f8201601f191681016001600160401b03811182821017156103eb576103eb6103af565b604052919050565b5f6001600160401b0382111561040b5761040b6103af565b5060051b60200190565b5f82601f830112610424575f5ffd5b8151610437610432826103f3565b6103c3565b8082825260208201915060208360051b860101925085831115610458575f5ffd5b602085015b838110156104f65780516001600160401b0381111561047a575f5ffd5b8601603f8101881361048a575f5ffd5b60208101516001600160401b038111156104a6576104a66103af565b6104b9601f8201601f19166020016103c3565b8181526040838301018a10156104cd575f5ffd5b8160408401602083015e5f6020838301015280865250505060208301925060208101905061045d565b5095945050505050565b5f5f5f5f5f5f60c08789031215610515575f5ffd5b865161052081610398565b602088015190965061053181610398565b604088015190955061054281610398565b6060880151608089015191955093506001600160401b03811115610564575f5ffd5b87015f601f82018a13610575575f5ffd5b8151610583610432826103f3565b8082825260208201915060208360051b86010192508c8311156105a4575f5ffd5b6020850194505b828510156105c65784518252602094850194909101906105ab565b60a08c0151909650935050506001600160401b0382111590506105e7575f5ffd5b6105f389828a01610415565b9150509295509295509295565b634e487b7160e01b5f52603260045260245ffd5b5f82518060208501845e5f920191825250919050565b600181811c9082168061063e57607f821691505b60208210810361065c57634e487b7160e01b5f52602260045260245ffd5b50919050565b601f8211156106a957805f5260205f20601f840160051c810160208510156106875750805b601f840160051c820191505b818110156106a6575f8155600101610693565b50505b505050565b81516001600160401b038111156106c7576106c76103af565b6106db816106d5845461062a565b84610662565b6020601f82116001811461070d575f83156106f65750848201515b5f19600385901b1c1916600184901b1784556106a6565b5f84815260208120601f198516915b8281101561073c578785015182556020948501946001909201910161071c565b508482101561075957868401515f19600387901b60f8161c191681555b50505050600190811b01905550565b602081525f82518060208401528060208501604085015e5f604082850101526040601f19601f83011684010191505092915050565b6150e0806107aa5f395ff3fe608060405234801561000f575f5ffd5b506004361061018f575f3560e01c8063b166a09f116100dd578063dbac582111610088578063f2fde38b11610063578063f2fde38b146103de578063f6d1c271146103f1578063fa93cd3814610404575f5ffd5b8063dbac582114610394578063e2fdcc17146103ab578063efd4ad5a146103cb575f5ffd5b8063bd6e7741116100b8578063bd6e774114610359578063c2107e731461036c578063cc224d4414610381575f5ffd5b8063b166a09f14610304578063b2a3fda414610326578063b870676c14610339575f5ffd5b8063690371801161013d57806384c7b4391161011857806384c7b439146102aa5780638da5cb5b146102d457806393e46744146102f1575f5ffd5b8063690371801461027a5780636afcb6da1461028d578063715018a6146102a2575f5ffd5b80633e1d0edc1161016d5780633e1d0edc1461022357806357c6e12a1461024557806361c661de14610265575f5ffd5b8063012f52ee146101935780631cba9bed146101d05780632ca6927d146101e5575b5f5ffd5b6101a66101a13660046140bc565b610417565b60405173ffffffffffffffffffffffffffffffffffffffff90911681526020015b60405180910390f35b6101e36101de366004614236565b61044c565b005b6102136101f3366004614236565b805160208183018101805160068252928201919093012091525460ff1681565b60405190151581526020016101c7565b6102136102313660046140bc565b60056020525f908152604090205460ff1681565b6102586102533660046140bc565b610534565b6040516101c79190614296565b61026d6105da565b6040516101c791906142a8565b6101e36102883660046140bc565b610630565b61029561070b565b6040516101c791906142ea565b6101e3610777565b6102bd6102b8366004614337565b61078a565b6040805192151583526020830191909152016101c7565b5f5473ffffffffffffffffffffffffffffffffffffffff166101a6565b6101e36102ff366004614392565b610899565b610213610312366004614392565b60086020525f908152604090205460ff1681565b6101e36103343660046140bc565b610ad3565b6002546101a69073ffffffffffffffffffffffffffffffffffffffff1681565b6101e3610367366004614236565b610b10565b610374610c25565b6040516101c791906143ab565b6101e361038f366004614392565b610cf9565b61039d60035481565b6040519081526020016101c7565b6001546101a69073ffffffffffffffffffffffffffffffffffffffff1681565b6101e36103d93660046140bc565b610e89565b6101e36103ec366004614392565b610f38565b61039d6103ff3660046140bc565b610f9b565b610213610412366004614704565b610fba565b60098181548110610426575f80fd5b5f9182526020909120015473ffffffffffffffffffffffffffffffffffffffff16905081565b6104546113ea565b6006816040516104649190614789565b9081526040519081900360200190205460ff166104c85760405162461bcd60e51b815260206004820152601760248201527f50726f76696465722068617368206e6f7420666f756e6400000000000000000060448201526064015b60405180910390fd5b6006816040516104d89190614789565b908152604051908190036020019020805460ff191690556104fa60078261143c565b7f6f594b4b4f0580c66aabba75218163a99fa1fe330a171cc9e2bfd8e167db22f8816040516105299190614296565b60405180910390a150565b60078181548110610543575f80fd5b905f5260205f20015f91509050805461055b90614794565b80601f016020809104026020016040519081016040528092919081815260200182805461058790614794565b80156105d25780601f106105a9576101008083540402835291602001916105d2565b820191905f5260205f20905b8154815290600101906020018083116105b557829003601f168201915b505050505081565b6060600480548060200260200160405190810160405280929190818152602001828054801561062657602002820191905f5260205f20905b815481526020019060010190808311610612575b5050505050905090565b6106386113ea565b5f8181526005602052604090205460ff16156106965760405162461bcd60e51b815260206004820152601660248201527f43757272656e637920616c72656164792061646465640000000000000000000060448201526064016104bf565b6004805460018181019092557f8a35acfbc15ff81a39ae7d344fd709f28e8600b4aa8c65c6b64bfe7fe36bd19b018290555f82815260056020526040808220805460ff1916909317909255905182917f15e2bb2d9733845f72b6cc683c4d7bafd2d79cfd5c160cb1be756b6faa97dbdc91a250565b6060600980548060200260200160405190810160405280929190818152602001828054801561062657602002820191905f5260205f20905b815473ffffffffffffffffffffffffffffffffffffffff168152600190910190602001808311610743575050505050905090565b61077f6113ea565b6107885f6115f1565b565b335f90815260086020526040812054819060ff166107ea5760405162461bcd60e51b815260206004820152601560248201527f4f6e6c7920657363726f77732063616e2063616c6c000000000000000000000060448201526064016104bf565b5f8061080b6107f986806147e5565b61080660e08901896147e5565b611665565b91509150610823828661081d90614846565b83611737565b5f8260200151836040015160405160200161083f929190614919565b60405160208183030381529060405280519060200120905061086081611a15565b600183604001516040516020016108779190614296565b6040516020818303038152906040528051906020012094509450505050915091565b6108a16113ea565b73ffffffffffffffffffffffffffffffffffffffff81165f9081526008602052604090205460ff166109155760405162461bcd60e51b815260206004820152600d60248201527f4e6f7420616e20657363726f770000000000000000000000000000000000000060448201526064016104bf565b73ffffffffffffffffffffffffffffffffffffffff81165f908152600860205260408120805460ff191690555b600954811015610a8f578173ffffffffffffffffffffffffffffffffffffffff16600982815481106109765761097661492d565b5f9182526020909120015473ffffffffffffffffffffffffffffffffffffffff1603610a8757600980546109ac90600190614987565b815481106109bc576109bc61492d565b5f918252602090912001546009805473ffffffffffffffffffffffffffffffffffffffff90921691839081106109f4576109f461492d565b905f5260205f20015f6101000a81548173ffffffffffffffffffffffffffffffffffffffff021916908373ffffffffffffffffffffffffffffffffffffffff1602179055506009805480610a4a57610a4a61499a565b5f8281526020902081015f1990810180547fffffffffffffffffffffffff0000000000000000000000000000000000000000169055019055610a8f565b600101610942565b5060405173ffffffffffffffffffffffffffffffffffffffff8216907f11b7e850ddbb17cad1c0bee1cd82ff930439a5dfde82c6a3472a64fba0f122de905f90a250565b610adb6113ea565b60038190556040518181527f11e8dda5412ecab251b7783921be2eb37fdf13b389fc7f671f2cee11a1dfefea90602001610529565b610b186113ea565b600681604051610b289190614789565b9081526040519081900360200190205460ff1615610b885760405162461bcd60e51b815260206004820152601b60248201527f50726f7669646572206861736820616c7265616479206164646564000000000060448201526064016104bf565b6001600682604051610b9a9190614789565b908152604051908190036020019020805491151560ff19909216919091179055600780546001810182555f919091527fa66cc928b5edb82af9bd49922954155ab7b0942694bea4ce44661d9a8736c68801610bf58282614a10565b507fc9e1c78701d1853eeb1eb35ad3449e4b336281f672d5837243d21239dc6f4096816040516105299190614296565b60606007805480602002602001604051908101604052809291908181526020015f905b82821015610cf0578382905f5260205f20018054610c6590614794565b80601f0160208091040260200160405190810160405280929190818152602001828054610c9190614794565b8015610cdc5780601f10610cb357610100808354040283529160200191610cdc565b820191905f5260205f20905b815481529060010190602001808311610cbf57829003601f168201915b505050505081526020019060010190610c48565b50505050905090565b610d016113ea565b73ffffffffffffffffffffffffffffffffffffffff81165f9081526008602052604090205460ff1615610d765760405162461bcd60e51b815260206004820152601160248201527f416c726561647920616e20657363726f7700000000000000000000000000000060448201526064016104bf565b73ffffffffffffffffffffffffffffffffffffffff8116610dd95760405162461bcd60e51b815260206004820152601660248201527f496e76616c696420657363726f7720616464726573730000000000000000000060448201526064016104bf565b73ffffffffffffffffffffffffffffffffffffffff81165f81815260086020526040808220805460ff1916600190811790915560098054918201815583527f6e1540171b6c0c960b71a7020d9f60077f6af931a8bbf590da0223dacf75c7af0180547fffffffffffffffffffffffff00000000000000000000000000000000000000001684179055517f187d4569055ab013405cf5670ad398a69b2970a64bfbb2b19a76e72120d471e59190a250565b610e916113ea565b5f8181526005602052604090205460ff16610eee5760405162461bcd60e51b815260206004820152601260248201527f43757272656e6379206e6f74206164646564000000000000000000000000000060448201526064016104bf565b610ef9600482611b75565b5f81815260056020526040808220805460ff191690555182917fa3c6a408fb053e3ef5e9bcd22e3574324a5ae99fad263cc4080da481842d3d4c91a250565b610f406113ea565b73ffffffffffffffffffffffffffffffffffffffff8116610f8f576040517f1e4fbdf70000000000000000000000000000000000000000000000000000000081525f60048201526024016104bf565b610f98816115f1565b50565b60048181548110610faa575f80fd5b5f91825260209091200154905081565b5f5f82116110305760405162461bcd60e51b815260206004820152602960248201527f5265717569726564207468726573686f6c64206d75737420626520677265617460448201527f6572207468616e2030000000000000000000000000000000000000000000000060648201526084016104bf565b82518211156110ce5760405162461bcd60e51b8152602060048201526044602482018190527f5265717569726564207468726573686f6c64206d757374206265206c65737320908201527f7468616e206f7220657175616c20746f206e756d626572206f66207769746e6560648201527f7373657300000000000000000000000000000000000000000000000000000000608482015260a4016104bf565b5f84602001516020015151116111265760405162461bcd60e51b815260206004820152600d60248201527f4e6f207369676e6174757265730000000000000000000000000000000000000060448201526064016104bf565b6040805180820190915260208086018051518352518101519082015284515f9061114f90611c9b565b6020870151515190915081146111a75760405162461bcd60e51b815260206004820152601c60248201527f436c61696d496e666f206861736820646f65736e2774206d617463680000000060448201526064016104bf565b806111f45760405162461bcd60e51b815260206004820152601660248201527f436c61696d496e666f2068617368206973207a65726f0000000000000000000060448201526064016104bf565b5f6111fe83611cdc565b905084815110156112775760405162461bcd60e51b815260206004820152602860248201527f4665776572207369676e617475726573207468616e207265717569726564207460448201527f68726573686f6c6400000000000000000000000000000000000000000000000060648201526084016104bf565b5f815167ffffffffffffffff811115611292576112926140d3565b6040519080825280602002602001820160405280156112bb578160200160208202803683370190505b5090505f805b8351811015611364575f8482815181106112dd576112dd61492d565b602002602001015190506112fa8185611db590919063ffffffff16565b15611305575061135c565b61130f8a82611db5565b1561135a57808484815181106113275761132761492d565b73ffffffffffffffffffffffffffffffffffffffff909216602092830291909101909101528261135681614ace565b9350505b505b6001016112c1565b50868110156113db5760405162461bcd60e51b815260206004820152603060248201527f4665776572207769746e657373207369676e617475726573207468616e20726560448201527f717569726564207468726573686f6c640000000000000000000000000000000060648201526084016104bf565b50600198975050505050505050565b5f5473ffffffffffffffffffffffffffffffffffffffff163314610788576040517f118cdaa70000000000000000000000000000000000000000000000000000000081523360048201526024016104bf565b5f5f61151384805480602002602001604051908101604052809291908181526020015f905b82821015611509578382905f5260205f2001805461147e90614794565b80601f01602080910402602001604051908101604052809291908181526020018280546114aa90614794565b80156114f55780601f106114cc576101008083540402835291602001916114f5565b820191905f5260205f20905b8154815290600101906020018083116114d857829003601f168201915b505050505081526020019060010190611461565b5050505084611dcc565b91509150806115645760405162461bcd60e51b815260206004820152601460248201527f537472696e67206e6f7420696e2061727261792e00000000000000000000000060448201526064016104bf565b83545f9061157490600190614987565b90508083146115bf5784818154811061158f5761158f61492d565b905f5260205f20018584815481106115a9576115a961492d565b905f5260205f200190816115bd9190614ae6565b505b848054806115cf576115cf61499a565b600190038181905f5260205f20015f6115e89190614046565b90555050505050565b5f805473ffffffffffffffffffffffffffffffffffffffff8381167fffffffffffffffffffffffff0000000000000000000000000000000000000000831681178455604051919092169283917f8be0079c531659141344cd1fd0a4f28419497f9722a3daafe3b4186f6b6457e09190a35050565b6116976040518060a0016040528060608152602001606081526020016060815260200160608152602001606081525090565b5f806116a586880188614bb3565b90505f6116b28686611e30565b90506116c082826001610fba565b506116ca82611e45565b93506116d98460800151611f3f565b6117255760405162461bcd60e51b815260206004820152601560248201527f4e6f2076616c69642070726f766964657248617368000000000000000000000060448201526064016104bf565b81604001519250505094509492505050565b5f670de0b6b3a76400008360c0015184604001516117559190614be5565b61175f9190614c29565b90505f836020015173ffffffffffffffffffffffffffffffffffffffff1663313ce5676040518163ffffffff1660e01b8152600401602060405180830381865afa1580156117af573d5f5f3e3d5ffd5b505050506040513d601f19601f820116820180604052508101906117d39190614c3c565b85519091505f906117e79060ff8416611f69565b9050828110156118395760405162461bcd60e51b815260206004820152601860248201527f496e636f7272656374207061796d656e7420616d6f756e74000000000000000060448201526064016104bf565b83156118d6575f86606001516040516020016118559190614789565b604051602081830303815290604052805190602001209050611884866080015161187e83611f95565b90612236565b6118d05760405162461bcd60e51b815260206004820152601b60248201527f496e636f7272656374207061796d656e7420726563697069656e74000000000060448201526064016104bf565b50611935565b608085015160608701516118e991612236565b6119355760405162461bcd60e51b815260206004820152601b60248201527f496e636f7272656374207061796d656e7420726563697069656e74000000000060448201526064016104bf565b5f611943876020015161228e565b905085606001518110156119995760405162461bcd60e51b815260206004820152601b60248201527f496e636f7272656374207061796d656e742074696d657374616d70000000000060448201526064016104bf565b7fc7914cfda800b414621b0ce0d8fed732cabbb831d6afcd8b2a73fb1ca78e443c8660a0015114611a0c5760405162461bcd60e51b815260206004820152601a60248201527f496e636f7272656374207061796d656e742063757272656e637900000000000060448201526064016104bf565b50505050505050565b6002546040517f169394bb0000000000000000000000000000000000000000000000000000000081526004810183905273ffffffffffffffffffffffffffffffffffffffff9091169063169394bb90602401602060405180830381865afa158015611a82573d5f5f3e3d5ffd5b505050506040513d601f19601f82011682018060405250810190611aa69190614c5c565b15611af35760405162461bcd60e51b815260206004820152601f60248201527f4e756c6c69666965722068617320616c7265616479206265656e20757365640060448201526064016104bf565b6002546040517f5bd4df320000000000000000000000000000000000000000000000000000000081526004810183905273ffffffffffffffffffffffffffffffffffffffff90911690635bd4df32906024015f604051808303815f87803b158015611b5c575f5ffd5b505af1158015611b6e573d5f5f3e3d5ffd5b5050505050565b5f5f611bce84805480602002602001604051908101604052809291908181526020018280548015611bc357602002820191905f5260205f20905b815481526020019060010190808311611baf575b5050505050846122b4565b9150915080611c1f5760405162461bcd60e51b815260206004820152601560248201527f62797465733332206e6f7420696e2061727261792e000000000000000000000060448201526064016104bf565b83545f90611c2f90600190614987565b9050808314611c7157848181548110611c4a57611c4a61492d565b905f5260205f200154858481548110611c6557611c6561492d565b5f918252602090912001555b84805480611c8157611c8161499a565b600190038181905f5260205f20015f905590555050505050565b5f5f825f015183602001518460400151604051602001611cbd93929190614c77565b60408051601f1981840301815291905280516020909101209392505050565b60605f611ceb835f01516122f9565b90505f83602001515167ffffffffffffffff811115611d0c57611d0c6140d3565b604051908082528060200260200182016040528015611d35578160200160208202803683370190505b5090505f5b846020015151811015611dad57611d6e8386602001518381518110611d6157611d6161492d565b6020026020010151612384565b828281518110611d8057611d8061492d565b73ffffffffffffffffffffffffffffffffffffffff90921660209283029190910190910152600101611d3a565b509392505050565b5f5f611dc184846123cc565b925050505b92915050565b81515f908190815b81811015611e1f578480519060200120868281518110611df657611df661492d565b60200260200101518051906020012003611e1757925060019150611e299050565b600101611dd4565b505f195f92509250505b9250929050565b6060611e3e82840184614ce4565b9392505050565b611e776040518060a0016040528060608152602001606081526020016060815260200160608152602001606081525090565b5f611e8c835f015160400151600c600161243d565b90506040518060a0016040528082600481518110611eac57611eac61492d565b6020026020010151815260200182600581518110611ecc57611ecc61492d565b6020026020010151815260200182600381518110611eec57611eec61492d565b6020026020010151815260200182600181518110611f0c57611f0c61492d565b6020026020010151815260200182600681518110611f2c57611f2c61492d565b6020026020010151815250915050919050565b5f600682604051611f509190614789565b9081526040519081900360200190205460ff1692915050565b5f611e3e837f2e00000000000000000000000000000000000000000000000000000000000000846130c1565b604080518082018252601081527f3031323334353637383961626364656600000000000000000000000000000000602082015281516042808252608082019093526060925f91906020820181803683370190505090507f3000000000000000000000000000000000000000000000000000000000000000815f8151811061201e5761201e61492d565b60200101907effffffffffffffffffffffffffffffffffffffffffffffffffffffffffffff191690815f1a9053507f7800000000000000000000000000000000000000000000000000000000000000816001815181106120805761208061492d565b60200101907effffffffffffffffffffffffffffffffffffffffffffffffffffffffffffff191690815f1a9053505f5b6020811015611dad578260048683602081106120ce576120ce61492d565b1a60f81b7effffffffffffffffffffffffffffffffffffffffffffffffffffffffffffff1916901c60f81c60ff168151811061210c5761210c61492d565b01602001517fff00000000000000000000000000000000000000000000000000000000000000168261213f836002614be5565b61214a906002614d16565b8151811061215a5761215a61492d565b60200101907effffffffffffffffffffffffffffffffffffffffffffffffffffffffffffff191690815f1a9053508285826020811061219b5761219b61492d565b825191901a600f169081106121b2576121b261492d565b01602001517fff0000000000000000000000000000000000000000000000000000000000000016826121e5836002614be5565b6121f0906003614d16565b815181106122005761220061492d565b60200101907effffffffffffffffffffffffffffffffffffffffffffffffffffffffffffff191690815f1a9053506001016120b0565b5f816040516020016122489190614789565b604051602081830303815290604052805190602001208360405160200161226f9190614789565b6040516020818303038152906040528051906020012014905092915050565b5f5f60035461229c8461330e565b6122a69190614d16565b9050611e3e617e9082614987565b81515f908190815b81811015611e1f57848682815181106122d7576122d761492d565b6020026020010151036122f157925060019150611e299050565b6001016122bc565b6060612328825f015160405160200161231491815260200190565b604051602081830303815290604052613630565b6123358360200151613853565b612348846040015163ffffffff166139eb565b61235b856060015163ffffffff166139eb565b60405160200161236e9493929190614d29565b6040516020818303038152906040529050919050565b5f5f61239084516139eb565b846040516020016123a2929190614dc8565b6040516020818303038152906040528051906020012090506123c48184613b45565b949350505050565b81515f908190815b81811015611e1f578473ffffffffffffffffffffffffffffffffffffffff168682815181106124055761240561492d565b602002602001015173ffffffffffffffffffffffffffffffffffffffff160361243557925060019150611e299050565b6001016123d4565b60605f8360ff16116124b75760405162461bcd60e51b815260206004820152602160248201527f4d61782076616c756573206d7573742062652067726561746572207468616e2060448201527f300000000000000000000000000000000000000000000000000000000000000060648201526084016104bf565b835f80808080806124c98a6002614dfc565b60ff1667ffffffffffffffff8111156124e4576124e46140d3565b60405190808252806020026020018201604052801561250d578160200160208202803683370190505b5090505f5b6040518060400160405280601981526020017f7b22657874726163746564506172616d6574657273223a7b22000000000000008152505181101561267b576040518060400160405280601981526020017f7b22657874726163746564506172616d6574657273223a7b220000000000000081525081815181106125975761259761492d565b01602001517fff0000000000000000000000000000000000000000000000000000000000000016886125c9838a614d16565b815181106125d9576125d961492d565b01602001517fff0000000000000000000000000000000000000000000000000000000000000016146126735760405162461bcd60e51b815260206004820152603060248201527f45787472616374696f6e206661696c65642e204d616c666f726d65642065787460448201527f726163746564506172616d65746572730000000000000000000000000000000060648201526084016104bf565b600101612512565b506040518060400160405280601981526020017f7b22657874726163746564506172616d6574657273223a7b220000000000000081525051866126be9190614d16565b95505f91505b8651861015612c4f578686815181106126df576126df61492d565b6020910101517fff00000000000000000000000000000000000000000000000000000000000000167f220000000000000000000000000000000000000000000000000000000000000014801561279857508661273c600188614987565b8151811061274c5761274c61492d565b6020910101517fff00000000000000000000000000000000000000000000000000000000000000167f5c0000000000000000000000000000000000000000000000000000000000000014155b6127ae57856127a681614ace565b9650506126c4565b8161293857866127bf876001614d16565b815181106127cf576127cf61492d565b6020910101517fff00000000000000000000000000000000000000000000000000000000000000167f3a0000000000000000000000000000000000000000000000000000000000000014801561288757508661282c876002614d16565b8151811061283c5761283c61492d565b6020910101517fff00000000000000000000000000000000000000000000000000000000000000167f2200000000000000000000000000000000000000000000000000000000000000145b6128f95760405162461bcd60e51b815260206004820152602360248201527f45787472616374696f6e206661696c65642e204d616c666f726d65642064617460448201527f612031000000000000000000000000000000000000000000000000000000000060648201526084016104bf565b612904600387614d16565b9550600191508581612917876002614be5565b815181106129275761292761492d565b6020026020010181815250506126c4565b5f87612945886001614d16565b815181106129555761295561492d565b6020910101517fff00000000000000000000000000000000000000000000000000000000000000167f2c00000000000000000000000000000000000000000000000000000000000000148015612a0d5750876129b2886002614d16565b815181106129c2576129c261492d565b6020910101517fff00000000000000000000000000000000000000000000000000000000000000167f2200000000000000000000000000000000000000000000000000000000000000145b90505f88612a1c896001614d16565b81518110612a2c57612a2c61492d565b6020910101517fff00000000000000000000000000000000000000000000000000000000000000167f7d00000000000000000000000000000000000000000000000000000000000000148015612ae4575088612a89896002614d16565b81518110612a9957612a9961492d565b6020910101517fff00000000000000000000000000000000000000000000000000000000000000167f2c00000000000000000000000000000000000000000000000000000000000000145b90508180612aef5750805b612b615760405162461bcd60e51b815260206004820152602360248201527f45787472616374696f6e206661696c65642e204d616c666f726d65642064617460448201527f612032000000000000000000000000000000000000000000000000000000000060648201526084016104bf565b8783612b6e896002614be5565b612b79906001614d16565b81518110612b8957612b8961492d565b602090810291909101015286612b9e81614ace565b9750508115612c34578b60ff168703612c1f5760405162461bcd60e51b815260206004820152602660248201527f45787472616374696f6e206661696c65642e204578636565646564206d61782060448201527f76616c756573000000000000000000000000000000000000000000000000000060648201526084016104bf565b612c2a600389614d16565b97505f9350612c48565b612c3f600389614d16565b97505050612c4f565b50506126c4565b8815612ef0575f5b6040518060400160405280601081526020017f2270726f766964657248617368223a220000000000000000000000000000000081525051811015612dc0576040518060400160405280601081526020017f2270726f766964657248617368223a22000000000000000000000000000000008152508181518110612cdc57612cdc61492d565b01602001517fff000000000000000000000000000000000000000000000000000000000000001688612d0e838a614d16565b81518110612d1e57612d1e61492d565b01602001517fff000000000000000000000000000000000000000000000000000000000000001614612db85760405162461bcd60e51b815260206004820152602960248201527f45787472616374696f6e206661696c65642e204d616c666f726d65642070726f60448201527f766964657248617368000000000000000000000000000000000000000000000060648201526084016104bf565b600101612c57565b506040518060400160405280601081526020017f2270726f766964657248617368223a22000000000000000000000000000000008152505186612e039190614d16565b95508581612e12876002614be5565b81518110612e2257612e2261492d565b6020026020010181815250505b865186108015612e985750868681518110612e4c57612e4c61492d565b6020910101517fff00000000000000000000000000000000000000000000000000000000000000167f220000000000000000000000000000000000000000000000000000000000000014155b15612eaf5785612ea781614ace565b965050612e2f565b8581612ebc876002614be5565b612ec7906001614d16565b81518110612ed757612ed761492d565b602090810291909101015284612eec81614ace565b9550505b5f8567ffffffffffffffff811115612f0a57612f0a6140d3565b604051908082528060200260200182016040528015612f3d57816020015b6060815260200190600190039081612f285790505b5090505f5b868110156130b15782612f56826002614be5565b81518110612f6657612f6661492d565b6020026020010151955082816002612f7e9190614be5565b612f89906001614d16565b81518110612f9957612f9961492d565b602002602001015194505f8686612fb09190614987565b67ffffffffffffffff811115612fc857612fc86140d3565b6040519080825280601f01601f191660200182016040528015612ff2576020820181803683370190505b509050865b86811015613089578a81815181106130115761301161492d565b01602001517fff0000000000000000000000000000000000000000000000000000000000000016826130438a84614987565b815181106130535761305361492d565b60200101907effffffffffffffffffffffffffffffffffffffffffffffffffffffffffffff191690815f1a905350600101612ff7565b508083838151811061309d5761309d61492d565b602090810291909101015250600101612f42565b509b9a5050505050505050505050565b5f83818080805b845181101561326c57603060f81b8582815181106130e8576130e861492d565b01602001517fff0000000000000000000000000000000000000000000000000000000000000016108015906131595750603960f81b85828151811061312f5761312f61492d565b01602001517fff000000000000000000000000000000000000000000000000000000000000001611155b1561319c5760308582815181106131725761317261492d565b0160200151613184919060f81c614987565b61318f85600a614be5565b6131999190614d16565b93505b81156131b057826131ac81614ace565b9350505b877effffffffffffffffffffffffffffffffffffffffffffffffffffffffffffff19168582815181106131e5576131e561492d565b01602001517fff00000000000000000000000000000000000000000000000000000000000000160361326457811561325f5760405162461bcd60e51b815260206004820152601c60248201527f537472696e6720686173206d756c7469706c6520646563696d616c730000000060448201526064016104bf565b600191505b6001016130c8565b50858211156132e35760405162461bcd60e51b815260206004820152602260248201527f537472696e672068617320746f6f206d616e7920646563696d616c20706c616360448201527f657300000000000000000000000000000000000000000000000000000000000060648201526084016104bf565b6132ed8287614987565b6132f890600a614f02565b6133029084614be5565b98975050505050505050565b5f61331761407d565b82515f908190815b8181101561355d578681815181106133395761333961492d565b6020910101517fff00000000000000000000000000000000000000000000000000000000000000167f2d0000000000000000000000000000000000000000000000000000000000000014806133e6575086818151811061339b5761339b61492d565b6020910101517fff00000000000000000000000000000000000000000000000000000000000000167f3a00000000000000000000000000000000000000000000000000000000000000145b8061344957508681815181106133fe576133fe61492d565b6020910101517fff00000000000000000000000000000000000000000000000000000000000000167f5400000000000000000000000000000000000000000000000000000000000000145b806134ac57508681815181106134615761346161492d565b6020910101517fff00000000000000000000000000000000000000000000000000000000000000167f2000000000000000000000000000000000000000000000000000000000000000145b156134ee576134bc878483613b6d565b8585600681106134ce576134ce61492d565b60200201526134de816001614d16565b9250836134ea81614ace565b9450505b8681815181106135005761350061492d565b01602001517fff00000000000000000000000000000000000000000000000000000000000000167f2e00000000000000000000000000000000000000000000000000000000000000036135555780915061355d565b60010161331f565b50613569868383613b6d565b84846006811061357b5761357b61492d565b6020020152600583146135d05760405162461bcd60e51b815260206004820152601360248201527f496e76616c6964206461746520737472696e670000000000000000000000000060448201526064016104bf565b6136266135e55f86815b602002015190611f69565b6135f15f8760016135da565b6135fd5f8860026135da565b6136095f8960036135da565b6136155f8a60046135da565b6136215f8b60056135da565b613c5e565b9695505050505050565b60605f825160026136419190614be5565b67ffffffffffffffff811115613659576136596140d3565b6040519080825280601f01601f191660200182016040528015613683576020820181803683370190505b5060408051808201909152601081527f303132333435363738396162636465660000000000000000000000000000000060208201529091505f5b8451811015613829578182518683815181106136db576136db61492d565b01602001516136ed919060f81c614c29565b815181106136fd576136fd61492d565b01602001517fff000000000000000000000000000000000000000000000000000000000000001683613730836002614be5565b815181106137405761374061492d565b60200101907effffffffffffffffffffffffffffffffffffffffffffffffffffffffffffff191690815f1a9053508182518683815181106137835761378361492d565b0160200151613795919060f81c614f0d565b815181106137a5576137a561492d565b01602001517fff0000000000000000000000000000000000000000000000000000000000000016836137d8836002614be5565b6137e3906001614d16565b815181106137f3576137f361492d565b60200101907effffffffffffffffffffffffffffffffffffffffffffffffffffffffffffff191690815f1a9053506001016136bd565b508160405160200161383b9190614f20565b60405160208183030381529060405292505050919050565b60408051602880825260608281019093525f91906020820181803683370190505090505f5b60148110156139c2575f61388d826013614987565b613898906008614be5565b6138a3906002614f02565b6138c39073ffffffffffffffffffffffffffffffffffffffff8716614c29565b60f81b90505f60108260f81c6138d99190614f51565b60f81b90505f8160f81c60106138ef9190614dfc565b8360f81c6138fd9190614f72565b60f81b905061390b82613cb9565b85613917866002614be5565b815181106139275761392761492d565b60200101907effffffffffffffffffffffffffffffffffffffffffffffffffffffffffffff191690815f1a90535061395e81613cb9565b8561396a866002614be5565b613975906001614d16565b815181106139855761398561492d565b60200101907effffffffffffffffffffffffffffffffffffffffffffffffffffffffffffff191690815f1a90535050600190920191506138789050565b50806040516020016139d49190614f20565b604051602081830303815290604052915050919050565b6060815f03613a2d57505060408051808201909152600181527f3000000000000000000000000000000000000000000000000000000000000000602082015290565b815f5b8115613a565780613a4081614ace565b9150613a4f9050600a83614c29565b9150613a30565b5f8167ffffffffffffffff811115613a7057613a706140d3565b6040519080825280601f01601f191660200182016040528015613a9a576020820181803683370190505b509050815b8515613b3c57613ab0600182614987565b90505f613abe600a88614c29565b613ac990600a614be5565b613ad39088614987565b613ade906030614f8b565b90505f8160f81b905080848481518110613afa57613afa61492d565b60200101907effffffffffffffffffffffffffffffffffffffffffffffffffffffffffffff191690815f1a905350613b33600a89614c29565b97505050613a9f565b50949350505050565b5f5f5f5f613b538686613cf3565b925092509250613b638282613d3c565b5090949350505050565b6060835f613b7b8585614987565b67ffffffffffffffff811115613b9357613b936140d3565b6040519080825280601f01601f191660200182016040528015613bbd576020820181803683370190505b509050845b84811015613c5457828181518110613bdc57613bdc61492d565b01602001517fff000000000000000000000000000000000000000000000000000000000000001682613c0e8884614987565b81518110613c1e57613c1e61492d565b60200101907effffffffffffffffffffffffffffffffffffffffffffffffffffffffffffff191690815f1a905350600101613bc2565b5095945050505050565b5f81613c6b603c85614be5565b613c77610e1087614be5565b62015180613c868b8b8b613e43565b613c909190614be5565b613c9a9190614d16565b613ca49190614d16565b613cae9190614d16565b979650505050505050565b5f600a60f883901c1015613cdf57613cd660f883901c6030614f8b565b60f81b92915050565b613cd660f883901c6057614f8b565b919050565b5f5f5f8351604103613d2a576020840151604085015160608601515f1a613d1c88828585613f71565b955095509550505050613d35565b505081515f91506002905b9250925092565b5f826003811115613d4f57613d4f614fa4565b03613d58575050565b6001826003811115613d6c57613d6c614fa4565b03613da3576040517ff645eedf00000000000000000000000000000000000000000000000000000000815260040160405180910390fd5b6002826003811115613db757613db7614fa4565b03613df1576040517ffce698f7000000000000000000000000000000000000000000000000000000008152600481018290526024016104bf565b6003826003811115613e0557613e05614fa4565b03613e3f576040517fd78bce0c000000000000000000000000000000000000000000000000000000008152600481018290526024016104bf565b5050565b5f6107b2841015613e52575f5ffd5b8383835f62253d8c60046064600c613e6b600e88614fd1565b613e759190614ff0565b613e8188611324615038565b613e8b9190615038565b613e959190614ff0565b613ea090600361505f565b613eaa9190614ff0565b600c80613eb8600e88614fd1565b613ec29190614ff0565b613ecd90600c61505f565b613ed8600288614fd1565b613ee29190614fd1565b613eee9061016f61505f565b613ef89190614ff0565b6004600c613f07600e89614fd1565b613f119190614ff0565b613f1d896112c0615038565b613f279190615038565b613f33906105b561505f565b613f3d9190614ff0565b613f49617d4b87614fd1565b613f539190615038565b613f5d9190615038565b613f679190614fd1565b6133029190614fd1565b5f80807f7fffffffffffffffffffffffffffffff5d576e7357a4501ddfe92f46681b20a0841115613faa57505f9150600390508261403c565b604080515f808252602082018084528a905260ff891692820192909252606081018790526080810186905260019060a0016020604051602081039080840390855afa158015613ffb573d5f5f3e3d5ffd5b5050604051601f19015191505073ffffffffffffffffffffffffffffffffffffffff811661403357505f92506001915082905061403c565b92505f91508190505b9450945094915050565b50805461405290614794565b5f825580601f10614061575050565b601f0160209004905f5260205f2090810190610f9891906140a4565b6040518060c001604052806006905b606081526020019060019003908161408c5790505090565b5b808211156140b8575f81556001016140a5565b5090565b5f602082840312156140cc575f5ffd5b5035919050565b7f4e487b71000000000000000000000000000000000000000000000000000000005f52604160045260245ffd5b6040805190810167ffffffffffffffff81118282101715614123576141236140d3565b60405290565b6040516080810167ffffffffffffffff81118282101715614123576141236140d3565b6040516060810167ffffffffffffffff81118282101715614123576141236140d3565b604051610100810167ffffffffffffffff81118282101715614123576141236140d3565b604051601f8201601f1916810167ffffffffffffffff811182821017156141bc576141bc6140d3565b604052919050565b5f82601f8301126141d3575f5ffd5b8135602083015f5f67ffffffffffffffff8411156141f3576141f36140d3565b50601f8301601f191660200161420881614193565b91505082815285838301111561421c575f5ffd5b828260208301375f92810160200192909252509392505050565b5f60208284031215614246575f5ffd5b813567ffffffffffffffff81111561425c575f5ffd5b6123c4848285016141c4565b5f81518084528060208401602086015e5f602082860101526020601f19601f83011685010191505092915050565b602081525f611e3e6020830184614268565b602080825282518282018190525f918401906040840190835b818110156142df5783518352602093840193909201916001016142c1565b509095945050505050565b602080825282518282018190525f918401906040840190835b818110156142df57835173ffffffffffffffffffffffffffffffffffffffff16835260209384019390920191600101614303565b5f60208284031215614347575f5ffd5b813567ffffffffffffffff81111561435d575f5ffd5b82016101008185031215611e3e575f5ffd5b803573ffffffffffffffffffffffffffffffffffffffff81168114613cee575f5ffd5b5f602082840312156143a2575f5ffd5b611e3e8261436f565b5f602082016020835280845180835260408501915060408160051b8601019250602086015f5b82811015614420577fffffffffffffffffffffffffffffffffffffffffffffffffffffffffffffffc087860301845261440b858351614268565b945060209384019391909101906001016143d1565b50929695505050505050565b803563ffffffff81168114613cee575f5ffd5b5f67ffffffffffffffff821115614458576144586140d3565b5060051b60200190565b5f82601f830112614471575f5ffd5b813561448461447f8261443f565b614193565b8082825260208201915060208360051b8601019250858311156144a5575f5ffd5b602085015b83811015613c5457803567ffffffffffffffff8111156144c8575f5ffd5b6144d7886020838a01016141c4565b845250602092830192016144aa565b5f81830360a08112156144f7575f5ffd5b6144ff614100565b9150608081121561450e575f5ffd5b50614517614129565b823581526145276020840161436f565b60208201526145386040840161442c565b60408201526145496060840161442c565b60608201528152608082013567ffffffffffffffff811115614569575f5ffd5b61457584828501614462565b60208301525092915050565b8015158114610f98575f5ffd5b8035613cee81614581565b5f606082840312156145a9575f5ffd5b6145b161414c565b9050813567ffffffffffffffff8111156145c9575f5ffd5b8201606081850312156145da575f5ffd5b6145e261414c565b813567ffffffffffffffff8111156145f8575f5ffd5b614604868285016141c4565b825250602082013567ffffffffffffffff811115614620575f5ffd5b61462c868285016141c4565b602083015250604082013567ffffffffffffffff81111561464b575f5ffd5b614657868285016141c4565b604083015250825250602082013567ffffffffffffffff811115614679575f5ffd5b614685848285016144e6565b6020830152506146976040830161458e565b604082015292915050565b5f82601f8301126146b1575f5ffd5b81356146bf61447f8261443f565b8082825260208201915060208360051b8601019250858311156146e0575f5ffd5b602085015b83811015613c54576146f68161436f565b8352602092830192016146e5565b5f5f5f60608486031215614716575f5ffd5b833567ffffffffffffffff81111561472c575f5ffd5b61473886828701614599565b935050602084013567ffffffffffffffff811115614754575f5ffd5b614760868287016146a2565b93969395505050506040919091013590565b5f81518060208401855e5f93019283525090919050565b5f611e3e8284614772565b600181811c908216806147a857607f821691505b6020821081036147df577f4e487b71000000000000000000000000000000000000000000000000000000005f52602260045260245ffd5b50919050565b5f5f83357fffffffffffffffffffffffffffffffffffffffffffffffffffffffffffffffe1843603018112614818575f5ffd5b83018035915067ffffffffffffffff821115614832575f5ffd5b602001915036819003821315611e29575f5ffd5b5f6101008236031215614857575f5ffd5b61485f61416f565b823567ffffffffffffffff811115614875575f5ffd5b614881368286016141c4565b8252506148906020840161436f565b60208201526040838101359082015260608084013590820152608083013567ffffffffffffffff8111156148c2575f5ffd5b6148ce368286016141c4565b60808301525060a0838101359082015260c0808401359082015260e083013567ffffffffffffffff811115614901575f5ffd5b61490d368286016141c4565b60e08301525092915050565b5f6123c46149278386614772565b84614772565b7f4e487b71000000000000000000000000000000000000000000000000000000005f52603260045260245ffd5b7f4e487b71000000000000000000000000000000000000000000000000000000005f52601160045260245ffd5b81810381811115611dc657611dc661495a565b7f4e487b71000000000000000000000000000000000000000000000000000000005f52603160045260245ffd5b601f821115614a0b57805f5260205f20601f840160051c810160208510156149ec5750805b601f840160051c820191505b81811015611b6e575f81556001016149f8565b505050565b815167ffffffffffffffff811115614a2a57614a2a6140d3565b614a3e81614a388454614794565b846149c7565b6020601f821160018114614a73575f8315614a595750848201515b600184901b5f19600386901b1c198216175b855550611b6e565b5f84815260208120601f198516915b82811015614aa25787850151825560209485019460019092019101614a82565b5084821015614abf57868401515f19600387901b60f8161c191681555b50505050600190811b01905550565b5f5f198203614adf57614adf61495a565b5060010190565b818103614af1575050565b614afb8254614794565b67ffffffffffffffff811115614b1357614b136140d3565b614b2181614a388454614794565b5f601f821160018114614b50575f8315614a59575081850154600184901b5f19600386901b1c19821617614a6b565b5f8581526020808220868352908220601f198616925b83811015614b865782860154825560019586019590910190602001614b66565b5085831015614ba357818501545f19600388901b60f8161c191681555b5050505050600190811b01905550565b5f60208284031215614bc3575f5ffd5b813567ffffffffffffffff811115614bd9575f5ffd5b6123c484828501614599565b8082028115828204841417611dc657611dc661495a565b7f4e487b71000000000000000000000000000000000000000000000000000000005f52601260045260245ffd5b5f82614c3757614c37614bfc565b500490565b5f60208284031215614c4c575f5ffd5b815160ff81168114611e3e575f5ffd5b5f60208284031215614c6c575f5ffd5b8151611e3e81614581565b5f614c828286614772565b7f0a000000000000000000000000000000000000000000000000000000000000008152614cb26001820186614772565b90507f0a0000000000000000000000000000000000000000000000000000000000000081526136266001820185614772565b5f60208284031215614cf4575f5ffd5b813567ffffffffffffffff811115614d0a575f5ffd5b6123c4848285016146a2565b80820180821115611dc657611dc661495a565b5f614d348287614772565b7f0a000000000000000000000000000000000000000000000000000000000000008152614d646001820187614772565b90507f0a000000000000000000000000000000000000000000000000000000000000008152614d966001820186614772565b90507f0a000000000000000000000000000000000000000000000000000000000000008152613cae6001820185614772565b7f19457468657265756d205369676e6564204d6573736167653a0a00000000000081525f6123c4614927601a840186614772565b60ff8181168382160290811690818114614e1857614e1861495a565b5092915050565b6001815b6001841115614e5a57808504811115614e3e57614e3e61495a565b6001841615614e4c57908102905b60019390931c928002614e23565b935093915050565b5f82614e7057506001611dc6565b81614e7c57505f611dc6565b8160018114614e925760028114614e9c57614eb8565b6001915050611dc6565b60ff841115614ead57614ead61495a565b50506001821b611dc6565b5060208310610133831016604e8410600b8410161715614edb575081810a611dc6565b614ee75f198484614e1f565b805f1904821115614efa57614efa61495a565b029392505050565b5f611e3e8383614e62565b5f82614f1b57614f1b614bfc565b500690565b7f307800000000000000000000000000000000000000000000000000000000000081525f611e3e6002830184614772565b5f60ff831680614f6357614f63614bfc565b8060ff84160491505092915050565b60ff8281168282160390811115611dc657611dc661495a565b60ff8181168382160190811115611dc657611dc661495a565b7f4e487b71000000000000000000000000000000000000000000000000000000005f52602160045260245ffd5b8181035f831280158383131683831282161715614e1857614e1861495a565b5f82614ffe57614ffe614bfc565b5f1983147f8000000000000000000000000000000000000000000000000000000000000000831416156150335761503361495a565b500590565b8082018281125f8312801582168215821617156150575761505761495a565b505092915050565b8082025f82127f8000000000000000000000000000000000000000000000000000000000000000841416156150965761509661495a565b8181058314821517611dc657611dc661495a56fea26469706673582212209136e16e645bc1e515bab20d90f7889da0e5faaf2c44b455c83387419721d5d564736f6c634300081e0033",
  "devdoc": {
    "errors": {
      "ECDSAInvalidSignature()": [
        {
          "details": "The signature derives the `address(0)`."
        }
      ],
      "ECDSAInvalidSignatureLength(uint256)": [
        {
          "details": "The signature has an invalid length."
        }
      ],
      "ECDSAInvalidSignatureS(bytes32)": [
        {
          "details": "The signature has an S value that is in the upper half order."
        }
      ],
      "OwnableInvalidOwner(address)": [
        {
          "details": "The owner is not a valid owner account. (eg. `address(0)`)"
        }
      ],
      "OwnableUnauthorizedAccount(address)": [
        {
          "details": "The caller account is not authorized to perform an operation."
        }
      ]
    },
    "kind": "dev",
    "methods": {
      "addEscrow(address)": {
        "params": {
          "_escrow": "The escrow address to add."
        }
      },
      "addProviderHash(string)": {
        "params": {
          "_newProviderHash": "New provider hash to be added"
        }
      },
      "getEscrows()": {
        "returns": {
          "_0": "The array of escrow addresses."
        }
      },
      "owner()": {
        "details": "Returns the address of the current owner."
      },
      "removeEscrow(address)": {
        "params": {
          "_escrow": "The escrow address to remove."
        }
      },
      "removeProviderHash(string)": {
        "params": {
          "_removeProviderHash": "Provider hash to be removed"
        }
      },
      "renounceOwnership()": {
        "details": "Leaves the contract without owner. It will not be possible to call `onlyOwner` functions. Can only be called by the current owner. NOTE: Renouncing ownership will leave the contract without an owner, thereby disabling any functionality that is only available to the owner."
      },
      "transferOwnership(address)": {
        "details": "Transfers ownership of the contract to a new account (`newOwner`). Can only be called by the current owner."
      },
      "verifyProofSignatures(((string,string,string),((bytes32,address,uint32,uint32),bytes[]),bool),address[],uint256)": {
        "params": {
          "_requiredThreshold": "Minimum number of signatures required from accepted witnesses",
          "_witnesses": "List of accepted witnesses",
          "proof": "Proof to be verified"
        }
      }
    },
    "version": 1
  },
  "userdoc": {
    "kind": "user",
    "methods": {
      "addEscrow(address)": {
        "notice": "Adds a new escrow address."
      },
      "addProviderHash(string)": {
        "notice": "ONLY OWNER: Add provider hash string. Provider hash must not have been previously added."
      },
      "getEscrows()": {
        "notice": "Returns all escrow addresses."
      },
      "removeEscrow(address)": {
        "notice": "Removes an escrow address."
      },
      "removeProviderHash(string)": {
        "notice": "ONLY OWNER: Remove provider hash string. Provider hash must have been previously added."
      }
    },
    "version": 1
  },
  "storageLayout": {
    "storage": [
      {
        "astId": 1239,
        "contract": "src/verifiers/TossBankReclaimVerifierV2.sol:TossBankReclaimVerifierV2",
        "label": "_owner",
        "offset": 0,
        "slot": "0",
        "type": "t_address"
      },
      {
        "astId": 12798,
        "contract": "src/verifiers/TossBankReclaimVerifierV2.sol:TossBankReclaimVerifierV2",
        "label": "escrow",
        "offset": 0,
        "slot": "1",
        "type": "t_address"
      },
      {
        "astId": 12801,
        "contract": "src/verifiers/TossBankReclaimVerifierV2.sol:TossBankReclaimVerifierV2",
        "label": "nullifierRegistry",
        "offset": 0,
        "slot": "2",
        "type": "t_contract(INullifierRegistry)14430"
      },
      {
        "astId": 12803,
        "contract": "src/verifiers/TossBankReclaimVerifierV2.sol:TossBankReclaimVerifierV2",
        "label": "timestampBuffer",
        "offset": 0,
        "slot": "3",
        "type": "t_uint256"
      },
      {
        "astId": 12806,
        "contract": "src/verifiers/TossBankReclaimVerifierV2.sol:TossBankReclaimVerifierV2",
        "label": "currencies",
        "offset": 0,
        "slot": "4",
        "type": "t_array(t_bytes32)dyn_storage"
      },
      {
        "astId": 12810,
        "contract": "src/verifiers/TossBankReclaimVerifierV2.sol:TossBankReclaimVerifierV2",
        "label": "isCurrency",
        "offset": 0,
        "slot": "5",
        "type": "t_mapping(t_bytes32,t_bool)"
      },
      {
        "astId": 13015,
        "contract": "src/verifiers/TossBankReclaimVerifierV2.sol:TossBankReclaimVerifierV2",
        "label": "isProviderHash",
        "offset": 0,
        "slot": "6",
        "type": "t_mapping(t_string_memory_ptr,t_bool)"
      },
      {
        "astId": 13018,
        "contract": "src/verifiers/TossBankReclaimVerifierV2.sol:TossBankReclaimVerifierV2",
        "label": "providerHashes",
        "offset": 0,
        "slot": "7",
        "type": "t_array(t_string_storage)dyn_storage"
      },
      {
        "astId": 13795,
        "contract": "src/verifiers/TossBankReclaimVerifierV2.sol:TossBankReclaimVerifierV2",
        "label": "isEscrow",
        "offset": 0,
        "slot": "8",
        "type": "t_mapping(t_address,t_bool)"
      },
      {
        "astId": 13798,
        "contract": "src/verifiers/TossBankReclaimVerifierV2.sol:TossBankReclaimVerifierV2",
        "label": "escrows",
        "offset": 0,
        "slot": "9",
        "type": "t_array(t_address)dyn_storage"
      }
    ],
    "types": {
      "t_address": {
        "encoding": "inplace",
        "label": "address",
        "numberOfBytes": "20"
      },
      "t_array(t_address)dyn_storage": {
        "base": "t_address",
        "encoding": "dynamic_array",
        "label": "address[]",
        "numberOfBytes": "32"
      },
      "t_array(t_bytes32)dyn_storage": {
        "base": "t_bytes32",
        "encoding": "dynamic_array",
        "label": "bytes32[]",
        "numberOfBytes": "32"
      },
      "t_array(t_string_storage)dyn_storage": {
        "base": "t_string_storage",
        "encoding": "dynamic_array",
        "label": "string[]",
        "numberOfBytes": "32"
      },
      "t_bool": {
        "encoding": "inplace",
        "label": "bool",
        "numberOfBytes": "1"
      },
      "t_bytes32": {
        "encoding": "inplace",
        "label": "bytes32",
        "numberOfBytes": "32"
      },
      "t_contract(INullifierRegistry)14430": {
        "encoding": "inplace",
        "label": "contract INullifierRegistry",
        "numberOfBytes": "20"
      },
      "t_mapping(t_address,t_bool)": {
        "encoding": "mapping",
        "key": "t_address",
        "label": "mapping(address => bool)",
        "numberOfBytes": "32",
        "value": "t_bool"
      },
      "t_mapping(t_bytes32,t_bool)": {
        "encoding": "mapping",
        "key": "t_bytes32",
        "label": "mapping(bytes32 => bool)",
        "numberOfBytes": "32",
        "value": "t_bool"
      },
      "t_mapping(t_string_memory_ptr,t_bool)": {
        "encoding": "mapping",
        "key": "t_string_memory_ptr",
        "label": "mapping(string => bool)",
        "numberOfBytes": "32",
        "value": "t_bool"
      },
      "t_string_memory_ptr": {
        "encoding": "bytes",
        "label": "string",
        "numberOfBytes": "32"
      },
      "t_string_storage": {
        "encoding": "bytes",
        "label": "string",
        "numberOfBytes": "32"
      },
      "t_uint256": {
        "encoding": "inplace",
        "label": "uint256",
        "numberOfBytes": "32"
      }
    }
  }
}